:0620000002200902250682
:0320620002200653
:0320060002256D43
:10206500AF83E582900400F0EFA3F03099FD900472
:1020750000E0FEA3E0FF8E99C2998E828F83221025
:10208500980280FBAE997F008E828F8322AFF0AEDF
:1020950083E582900402F0EEA3F0EFA3F090040232
:1020A500E0FDA3E0FEA3E0FF7B007C008D828E8334
:1020B5008FF01237C9FA60360DBD00010E9004028B
:1020C500EDF0EEA3F0EFA3F08A017A0089828A830E
:1020D500C007C006C005C004C003122065D003D0E8
:1020E50004D005D006D0070BBB00C10C80BE900400
:1020F50002EDF0EEA3F0EFA3F00BBB00010C8B8219
:102105008C8322AF83E582900405F0EFA3F090372E
:10211500E975F080122092900405E0FEA3E0FF8EA1
:10212500828F831220659037F175F08012209222FC
:10213500AFF0AE83E582900407F0EEA3F0EFA3F0D5
:102145009037E975F080122092900407E0FDA3E036
:10215500FEA3E0FF8D828E838FF01220929037F1DF
:1021650075F08012209222AFF0AE83E58290040ACA
:10217500F0EEA3F0EFA3F09037F675F08012209201
:1021850090040AE0FDA3E0FEA3E0FF8D828E838F1D
:10219500F01220929037F175F08012209222900073
:1021A5000D12206590000A12206522AFF0AE83E57E
:1021B5008290040DF0EEA3F0EFA3F0900410E4F08C
:1021C500A3F090040DE0FDA3E0FEA3E0FF8D828E59
:1021D500838FF01237C9FCA3AD82AE8390040DED59
:1021E500F0EEA3F0EFA3F0EC700302229D90041033
:1021F500E0FAA3E0C454F0CAC4CA6ACA54F0CA6A71
:10220500FB900410EAF0EBA3F0BC30004029EC246D
:10221500C640248C027B00EA24D0FAEB34FFFB9005
:102225000410E0F8A3E0F9E84202E9420390041043
:10223500EAF0EBA3F08096BC4100402AEC24B940BB
:10224500258C027B0074C92AFA74FF3BFB900410AD
:10225500E0F8A3E0F9E84202E94203900410EAF04D
:10226500EBA3F00221D2BC61004028EC2499402365
:102275007B0074A92CFC74FF3BFB900410E0F9A3D0
:10228500E0FAE94204EA4203900410ECF0EBA3F013
:102295000221D290FFFF800B900410E0FEA3E08E98
:1022A50082F58322AF83E582900416F0EFA3F090C8
:1022B5000416E0C0E0A3E0C0E074FEC0E07437C0DF
:1022C500E07480C0E0122D7DE58124FBF58190044A
:1022D50012E0FDA3E0FEA3E0FF900415E0FC7B0007
:1022E500C3EB9C5049BB10005044EB2DF8E43EF97C
:1022F5008F02888289838AF01237C9F87A00C0076D
:10230500C006C005C004C003C000C0027405C0E01B
:102315007438C0E07480C0E0122D7DE58124FBF5A2
:1023250081D003D004D005D006D0070B80B2740B42
:10233500C0E07438C0E07480C0E0122D7D158115B1
:1023450081158122AFF0AE83E582900419F0EEA3EA
:10235500F0EFA3F090041CE4F0900418E0FF900463
:1023650019E0FCA3E0FDA3E0FE8F027B001ABAFF93
:10237500011B90041CE0F87900C3E89AE964808B9E
:10238500F063F08095F04003022447C007C006C003
:1023950005C004122084AA82AB83D004D005D006E0
:1023A500D007BA0D03022447BA0A03022447BA0824
:1023B500028003BA7F3390041CE0FBE060ABEB14B2
:1023C50090041CF0900008C007C006C005C00412A8
:1023D5002065900020122065900008122065D00429
:1023E500D005D006D00702236EBA30004005EA2496
:1023F500C6501ABA41004005EA24B95010BA610026
:10240500500302236EEA2499500302236E90041CA4
:10241500E0FB04F0EB2CF8E43DF98E038882898318
:102425008BF0EA122CB47B008A828B83C007C0062E
:10243500C005C004122108D004D005D006D007027B
:10244500236E900419E0FDA3E0FEA3E0FF90041CB9
:10245500E0FC2DFDE43EFE8D828E838FF0E4122C90
:10246500B4C0041221A3D0048C8222E58290041DFD
:10247500F0750970E0FF8F0BE509122B3AE50B1299
:102485002B71122B9690048CEFF075820122AFF020
:10249500AE83E58290041EF0EEA3F0EFA3F075097C
:1024A50071E509122B3A122BB6F50C122B969004F6
:1024B5001EE0FDA3E0FEA3E0FF8D828E838FF0E595
:1024C5000C122CB4758201227582FE12247022E54D
:1024D50082900421F090048CE0FF900421E06009D3
:1024E50090042274014FF0800790042274FE5FF07F
:1024F500900422E0F58212247022D288D2A8D2AFAD
:1025050022C021C0E0C0F0C082C083C007C006C0A1
:1025150005C004C003C002C001C000C0D075D00012
:1025250090042375F000122493900423E0235401B2
:10253500FF90048EE060078F821224D4800DEFB4E3
:1025450001009200E433F5821224D4D0D0D000D01B
:1025550001D002D003D004D005D006D007D083D057
:1025650082D0F0D0E0D02132122ACF1224CD12240D
:10257500FF7582011224D4122613122084AE828E96
:10258500057F008D828F83C006122065D006BE317F
:10259500028019BE32028019BE33028019BE340290
:1025A5008019BE35028019BE3657803112268080CB
:1025B500C61227B480C112289180BC122A6880B740
:1025C50090048E7401F090043875F00012249390F5
:1025D5000438E0235401F5821224D4809A90048EA5
:1025E500E4F090043975F000122493900439E02347
:1025F5005401B401009201E433F5821224D402257A
:102605007C90380E75F08012209202257C2290383D
:102615000B75F08012209290383A75F08012209256
:1026250090386575F08012213590387975F08012F3
:10263500209290389375F0801220929038AE75F004
:10264500801220929038C375F0801220929038D570
:1026550075F08012216C9038F875F08012209290F8
:10266500391175F08012209290392C75F080122C5A
:10267500CF90395775F0801220922290397175F0FC
:102685008012213590399275F080122092900418AD
:102695007414F090042475F00012234990042475F5
:1026A500F0001221B0AE82AF838E048F05C374FF94
:1026B5009C74079D500C9039B575F08012209202DC
:1026C50027B39039DD75F080C007C00612209290BF
:1026D50004187414F090042475F000122349900432
:1026E5002475F0001221B0AC82AD83D006D0078CE2
:1026F500028D03C374FF9AE49B500C9039FA75F070
:10270500801220920227B3903A1E75F080C007C050
:1027150006C005C004122092D004D005D006D0070B
:102725008E02EFA2E7CA33CA33CA5401740E5A4463
:10273500A0F5098E0AAA0A7B00A8097900C007C07E
:1027450006C005C004C002C003C000C0017426C095
:10275500E0743AC0E07480C0E0122D7DE58124F973
:10276500F581D004D0058C0B122AD6903A5275F01B
:1027750080122135D006D007C006C00774FEC0E020
:102785007437C0E07480C0E0122D7DE58124FBF52F
:1027950081AE0B7F00C006C007745DC0E0743AC00F
:1027A500E07480C0E0122D7DE58124FBF581229047
:1027B5003A6475F08012213590399275F0801220B7
:1027C500929004187414F090042475F000122349B3
:1027D50090042475F0001221B0AE82AF838E048F71
:1027E50005C374FF9C74079D500C9039B575F08036
:1027F500122092022890903A8675F080C007C00694
:10280500122092D006D0078E04EFA2E7CC33CC334A
:10281500CC5401740E5C44A0F5098E0AAC0A7D0007
:10282500AA097B00C007C006C004C005C002C003DA
:102835007426C0E0743AC0E07480C0E0122D7DE5D6
:102845008124F9F581122AE9903A5275F080122116
:1028550035D006D007C006C00774FEC0E07437C087
:10286500E07480C0E0122D7DE58124FBF581AE0C7E
:102875007F00C006C007745DC0E0743AC0E0748094
:10288500C0E0122D7DE58124FBF58122903A8E75FD
:10289500F080122135903AAA75F0801220929004AA
:1028A500187414F090042475F00012234990042440
:1028B50075F0001221B0AE82AF838E048F05C3740C
:1028C500FF9C74079D500C903ACC75F080122092B5
:1028D500022A67903AFA75F080C007C00612209266
:1028E5009004187414F090042475F0001223499094
:1028F500042475F0001221B0AC82AD83D006D00758
:102905008C028D03C374FF9A74079B500C903B1A7D
:1029150075F080122092022A67C3EC9EED9F500C41
:10292500903B4675F080122092022A67903B7475A1
:10293500F080C007C006C005C0041220921221A372
:10294500D004D005D006D00790043AEEF0EFA3F0FE
:1029550090043AE0FEA3E0FFC3EC9EED9F50030216
:102965002A5EECC39EFEED9FFF0EBE00010F8E0298
:102975008F03C374109AE49B500B90044C7410F0B1
:10298500E4A3F0800890044CEEF0EFA3F090043A35
:10299500E0FEA3E0FF90044CE0FAA3E0FB7900C061
:1029A50004C00589007D00C3E89AED9BD005D004DD
:1029B5005061C004C005890D750E008E0F8F10A8DB
:1029C5000DAD0EE8250FF8ED3510A2E7C833C83375
:1029D500C85401740E5844A0F5098E05E92DF50A71
:1029E500C007C006C005C004C003C002C001122A4A
:1029F500E9D001D002D003D004D005D006D007E934
:102A0500243CF582E43404F583E50CF009D005D0C7
:102A150004808C90043AE0FEA3E0FF900412743C1D
:102A2500F07404A3F0E4A3F0900415EAF08E828F0D
:102A350083C007C006C005C004C003C0021222A996
:102A4500D002D003D004D005D006D00790043AEACE
:102A55002EF0EB3FA3F0022955903B8375F08012D1
:102A6500213522903B9875F080122135903BB17548
:102A7500F080122092122084AE828E057F008D8216
:102A85008F83C0061220651221A3D006BE7902806D
:102A950003BE592C903BEB75F080122092122BCF80
:102AA500903C0875F080122135903C1575F0801228
:102AB5002092903C3675F0801220921224CD800928
:102AC500903C5475F080122092227590FF22750873
:102AD50005E509122B3AE50A122B71E50B122B714C
:102AE500122B9622E509122B3AE50A122B71122BAD
:102AF500A722E5097A08C2900000000000C29133C0
:102B05005005D290022B0EC290D291000000000019
:102B1500C291DAEBD2900000D291000000000030A3
:102B25009003022AF7C291C2900000000000D291E2
:102B35000000D290227A08D290D2910000000000C5
:102B4500C2900000000000C291335004D290800270
:102B5500C290D2910000000000C291DAECD2900040
:102B65000000D2910000000000C291227A08335083
:102B750004D2908002C290D2910000000000C29160
:102B8500DAECD290000000D2910000000000C29162
:102B950022C2900000000000D2910000000000D287
:102BA5009022E50904122B3A122BB6F50C122B963E
:102BB500227A08D290C291000000000000D291C391
:102BC500309001B333DAEEC29122D290D2919004C3
:102BD5004EE4F090044EE0FFBF0A00500890044E0A
:102BE500E004F080EEC29090044EE4F090044EE0D4
:102BF500FFBF0500500890044EE004F080EEC2913E
:102C050090044EE4F090044EE0FFBF05005008909C
:102C1500044EE004F080EED29090044EE4F090046F
:102C25004EE0FFBF09005020D2917F00BF0A00503F
:102C3500030F80F8C2917F00BF0A0050030F80F890
:102C450090044EE004F080D6D290D29190044EE4E8
:102C5500F090044EE0FFBF0500500890044EE004DC
:102C6500F080EEC29090044EE4F090044EE0FFBF79
:102C75000500500890044EE004F080EED2919004D7
:102C85004EE4F090044EE0FFBF0500500890044E5E
:102C9500E004F080EED29090044EE4F090044EE013
:0F2CA500FFBF0A00500890044EE004F080EE22BA
:1037E9001B5B313B39366D001B5B306D001B5B3158
:1037F9003B39326D00253033583A20002530325894
:1038090020000D0A004E6F7420612063686F6963A0
:103819006520776520686176652E20506C65617337
:10382900652074727920616761696E2E0D0A0D0A2F
:1038390000202D2D2D2D2D2D2D2D2D2049324320CC
:10384900496E74657266616365204D656E75202DDC
:103859002D2D2D2D2D2D2D2D200D0A004545505294
:103869004F4D2046756E6374696F6E733A0D0A0089
:10387900312E205772697465204279746520746FFE
:1038890020454550524F4D0D0A00322E2052656198
:103899006420427974652066726F6D2045455052E7
:1038A9004F4D0D0A00332E204865782044756D7000
:1038B90020454550524F4D0D0A00342E2052657354
:1038C900657420454550524F4D0D0A005043463806
:1038D9003537344120492F4F20457870616E646532
:1038E900722046756E6374696F6E733A0D0A0035FE
:1038F9002E204D616B65204F7574707574203D20C5
:10390900496E7075740D0A00362E204D616B652065
:103919004F7574707574203D2021496E707574203F
:103929000D0A002D2D2D2D2D2D2D2D2D2D2D2D2D2E
:103939002D2D2D2D2D2D2D2D2D2D2D2D2D2D2D2DAE
:103949002D2D2D2D2D2D2D2D2D2D2D0D0A005075A3
:1039590074207768617420796F752077616E74209F
:10396900746F20646F3A20000D0A2D2D2D20577297
:10397900697465204279746520746F2045455052F9
:103989004F4D202D2D2D0D0A00456E746572204571
:103999004550524F4D20616464726573732028301D
:1039A9002D37464620686578293A20004572726F9E
:1039B900723A2041646472657373206F7574206F65
:1039C900662072616E676520286D617820374646EA
:1039D900290D0A00456E7465722064617461206264
:1039E9007974652028302D464620686578293A2063
:1039F900004572726F723A2044617461206F757468
:103A0900206F662072616E676520286D6178204697
:103A190046290D0A0057726974696E67000D0A64B8
:103A2900657669636520616464723A20307825306F
:103A390032582C206C6F77657220616464723A2069
:103A49003078253032580D0A0053756363657373F6
:103A5900210D0A00253032580D0A000D0A2D2D2D91
:103A6900205265616420427974652066726F6D2009
:103A7900454550524F4D202D2D2D0D0A005265619F
:103A890064696E67000D0A2D2D2D20486578204444
:103A9900756D7020454550524F4D202D2D2D0D0A25
:103AA90000456E7465722073746172742061646478
:103AB900726573732028302D37464620686578294A
:103AC9003A20004572726F723A2053746172742001
:103AD90061646472657373206F7574206F662072F8
:103AE900616E676520286D617820374646290D0A81
:103AF90000456E74657220656E6420616464726548
:103B090073732028302D37464620686578293A2076
:103B1900004572726F723A20456E64206164647266
:103B2900657373206F7574206F662072616E6765A7
:103B390020286D617820374646290D0A00457272A2
:103B49006F723A2053746172742061646472657390
:103B590073206D757374206265203C3D20656E6429
:103B690020616464726573730D0A0052656164694A
:103B79006E6720454550524F4D0048657820647561
:103B89006D7020636F6D706C657465210D0A000D91
:103B99000A2D2D2D20526573657420454550524FCD
:103BA9004D202D2D2D0D0A00546869732077696CFD
:103BB9006C207265736574207468652049324320EE
:103BC90062757320616E6420454550524F4D2E2019
:103BD900436F6E74696E75653F2028792F6E293A97
:103BE9002000526573657474696E672049324320F9
:103BF90062757320616E6420454550524F4D002017
:103C0900436F6D706C657465210D0A0054686520F9
:103C190049324320454550524F4D20686173206217
:103C290065656E2072657365742E0D0A0052652DE7
:103C3900696E697469616C697A696E672050434677
:103C490038353734412E2E2E0D0A005265736574AE
:0E3C59002063616E63656C6C65642E0D0A005D
:033C7200FE000150
:06203800E4787FF6D8FDFC
:102016007903E94400601B7A01903C72788C75A0C4
:1020260004E493F2A308B8000205A0D9F4DAF27525
:02203600A0FF09
:102CB40020F71130F6138883A88220F509F6A8833B
:0B2CC4007583002280FEF280F5F022F4
:10203E007800E84400600A790075A004E4F309D83A
:10204E00FC788CE84400600C7901900400E4F0A365
:04205E00D8FCD9FAD7
:102CCF00AFF0AE83E582900450F0EEA3F0EFA3F0E7
:102CDF00900450E0FDA3E0FEA3E0FF8D828E838F72
:102CEF00F01237C9FC60330DBD00010E900450ED9A
:102CFF00F0EEA3F0EFA3F07B008C828B83C007C0B4
:102D0F0006C005122065AB82AC83D005D006D00774
:102D1F00BBFFC8BCFFC590FFFF2290000A022065D1
:102D2F00C01B85811B7E008E83122065D01B22AFB6
:102D3F00F0AE83E582900454F0EEA3F0EFA3F09091
:102D4F000454E0FDA3E0FEA3E0FF900453E0FC90E9
:102D5F000468E4F0A3F0A3F090046BEDF0EEA3F0A1
:102D6F00EFA3F090046EECF0902D2F022E83C01B7A
:102D7F00E581F51B24FBFF900468E4F0A3F0A3F0BA
:102D8F00E51B24FBF890046BE6F008E6A3F008E6D9
:102D9F00A3F090046EEFF0902D2F122E83D01B22F4
:102DAF00E582900464F0E0FF90045AE0C0E0A3E0F5
:102DBF00C0E0A3E0C0E0122DCA800D900458E0C01F
:102DCF00E0A3E0C0E08F8222158115811581900468
:102DDF0062E02401F0A3E03400F022E58290046564
:102DEF00F0E02430FF24C6500D74072FFF900457D6
:102DFF00E060034307208F82022DAFE582900466C7
:102E0F00F0E0FFC4540FF582C007122DEAD007532C
:102E1F00070F8F82022DEAE582900467F090045D20
:102E2F00E0FCA3E0FDA3E0FEA3E0FF900461E0FB64
:102E3F00900467E0FA79208B00E828F51CEF235403
:102E4F0001451CFBEC2CFCED33FDEE33FEEF33FFA5
:102E5F00C3EB9A4007EBC39AFB43040119E970D700
:102E6F0090045DECF0EDA3F0EEA3F0EFA3F090046F
:102E7F0061EBF022AF83E58290046FF0EFA3F09047
:102E8F00046FE0FEA3E0FF900458EEF0EFA3F09084
:102E9F000468E0FDA3E0FEA3E0FF90045AEDF0EE1E
:102EAF00A3F0EFA3F0900462E4F0A3F090046BE0C2
:102EBF00FDA3E0FEA3E0FF8D828E838FF01237C952
:102ECF00FC90046B74012DF0E43EA3F0EFA3F0EC43
:102EDF007003023785BC2502800302377D90047191
:102EEF00E4F0900472F0900473F0900474F0900486
:102EFF0075F0900476F0900477F0900478F09004D9
:102F0F007AF090047BF0A3F090047D14F0A3F0907E
:102F1F00046BE0FDA3E0FEA3E0FF8D828E838FF0B4
:102F2F001237C9FBA3AD82AE8390046BEDF0EEA315
:102F3F00F0EFA3F0900481EBF0BB25088B82122DEC
:102F4F00AF022EBBBB3000500302301CEB24C65027
:102F5F000302301C90047DE0F511A3E0F51274FF1D
:102F6F00B51163B51260C005C006C00790047BE0C1
:102F7F00FAA3E0FF90048AEAF0EFA3F090000AC0F2
:102F8F0005C0031237A9AE82AF83D003D0058B02E1
:102F9F007D00EA2EFEED3FFFEE24D0FEEF34FFFF63
:102FAF0090047BEEF0EFA3F0D007D006D00590048D
:102FBF007BE0F5F0A3E045F06003022F2990047247
:102FCF007401F0022F29C005C006C00790048AE5DE
:102FDF0011F0E512A3F090000AC006C005C003125D
:102FEF0037A9AA82AF83D003D005D0067E00EB2A83
:102FFF00FAEE3FFFEA24D0FAEF34FFFF90047DEAA8
:10300F00F0EFA3F0D007D006D005022F299004814E
:10301F00E0FBBB2E2FC005C006C00790047DE0FA71
:10302F00A3E0FFBAFF05BFFF028009D007D006D08B
:10303F0005022F29D007D006D00590047DE4F0A318
:10304F00F0022F29BB61004014EB2485400F900440
:10305F008174DF5BF09004577401F0800590045782
:10306F00E4F0900481E0FBBB20028075BB2B028053
:10307F0067BB2D028059BB4202806FBB4302807C2D
:10308F00BB4403023313BB4603023339BB4803026D
:10309F002F29BB4903023313BB4A03022F29BB4C11
:1030AF00028050BB4F03023321BB5003023281BB5E
:1030BF0053028077BB5403022F29BB5503023329D8
:1030CF00BB5803023331BB5A03022F2902334190FD
:1030DF0004717401F0022F299004737401F0022F10
:1030EF00299004747401F0022F299004767401F072
:1030FF00022F299004777401F0022F29900476E0B3
:10310F00600E90046EE014F9F0900481E7F0800FE8
:10311F0090046EE024FEFFF08F01900481E7F090A1
:10312F000481E0F582122DAF02335090046EE0243B
:10313F00FDFFF08F01870509870609870719199089
:10314F00045DEDF0EEA3F0EFA3F08D828E838FF090
:10315F0012379185821185831290047DE0FAA3E0E6
:10316F00FDBAFF0DBDFF0A90047DE511F0E512A336
:10317F00F0900471E0704B90047BE0FAA3E0FDC384
:10318F00E5119AE5129D503A90047BEAC39511F030
:10319F00ED9512A3F090047BE0FAA3E0FD8A068D73
:1031AF00071ABAFF011DEE4F6010758220C005C0CF
:1031BF0002122DAFD002D00580E390047BEAF0ED30
:1031CF00A3F090047DE0F514A3E0F51590045DE005
:1031DF00FAA3E0FDA3E0FF8A828D838FF01237C937
:1031EF00F513603CC3E4951474808515F063F0808B
:1031FF0095F0502C151474FFB51402151585138214
:10320F00122DAF90045DE0FAA3E0FDA3E0FF0ABA30
:10321F0000010D90045DEAF0EDA3F0EFA3F080AC98
:10322F00900471E0700302335090047BE0FEA3E042
:10323F00FFC3E5119EE5129F400302335090047BBC
:10324F00EEC39511F0EF9512A3F090047BE0FEA36F
:10325F00E0FF8E028F051EBEFF011FEA4D700302B5
:10326F003348758220C007C006122DAFD006D00795
:10327F0080E090046EE024FDFDF08D018716098734
:10328F0017098718191990045DE516F0E517A3F0D3
:10329F00E518A3F090045FE0FDBD800040089004A6
:1032AF00817443F08020BD60004008900481745009
:1032BF00F08013BD400040089004817449F08006EF
:1032CF009004817458F0900481E0FDF582C00512DE
:1032DF002DAF75823A122DAF758230122DAF7582D8
:1032EF0078122DAFD005BD4902800EBD5002800966
:1032FF0090045EE0F582122E0A90045DE0F58212D2
:10330F002E0A803D9004757401F090047A740AF0CF
:10331F00802F90047A7408F0802790047A740AF052
:10332F00801F90047A7410F080179004787401F065
:10333F00800F8B82122DAF800890047BEEF0EFA3ED
:10334F00F0900478E0607190046EE024FCFFF08F41
:10335F000187030987050987060987071919199036
:10336F00045DEBF0EDA3F0EEA3F0EFA3F090045D9E
:10337F007467F0743CA3F07480A3F090045DE0F5E3
:10338F0016A3E0F517A3E0F51874012516FAE43536
:10339F0017FBAF1890045DEAF0EBA3F0EFA3F085F5
:1033AF0016828517838518F01237C9FF7003022E16
:1033BF00BB8F82122DAF80C390047AE07003022E70
:1033CF00BB900476E0604790046EE014F9F0870735
:1033DF007E007D007B0090045DEFF0EEA3F0EDA387
:1033EF00F0EBA3F0900475E0600302349390045D5A
:1033FF00E0FBA3E0A3E0A3E07D007E007F0090044C
:10340F005DEBF0EDA3F0EEA3F0EFA3F08076900468
:10341F0077E0602890046EE024FCFFF08F018703B3
:10342F0009870509870609870719191990045DEBA4
:10343F00F0EDA3F0EEA3F0EFA3F0804890046EE060
:10344F0024FEFFF08F01870609870719EF3395E0F8
:10345F00FDFB90045DEEF0EFA3F0EDA3F0EBA3F016
:10346F00900475E0701E90045DE0FBA3E0FDA3E007
:10347F00A3E07E007F0090045DEBF0EDA3F0EEA3E0
:10348F00F0EFA3F0900475E0604190045DE0FBA3C2
:10349F00E0FDA3E0FEA3E0FF30E72B90045DE0FB2F
:1034AF00A3E0FDA3E0FEA3E0FFC3E49BFBE49DFDCF
:1034BF00E49EFEE49FFF90045DEBF0EDA3F0EEA31E
:1034CF00F0EFA3F08005900475E4F0900479740197
:1034DF00F090047AE0F514751987751A04E4F51164
:1034EF00F512900461E4F0851482122E269004796F
:1034FF00E07033900461E0C454F0F516900461E07D
:10350F00C4540F4516F516851982851A83E0FFE519
:10351F00164207851982851A83EFF0151974FFB5C6
:10352F001902151A800C900461E0FF851982851A23
:10353F0083F00511E4B511020512900479E0B4018E
:10354F0000E433F090045DE0FAA3E0FBA3E0FEA3F8
:10355F00E0FFEA4B4E4F708A900488E519F0E51AA8
:10356F00A3F090047FE511F0E512A3F090047BE047
:10357F00F5F0A3E045F0700990047B7401F0E4A32B
:10358F00F0900472E0FFE07047900471E0704185A5
:10359F00111985121A90047BE0FAA3E0FBC007AF64
:1035AF00190F8F067F00C3EE9AEF9BD00750197546
:1035BF008220C007C003C002122DAFD002D003D0AB
:1035CF00071ABAFF011B80D590047BEAF0EBA3F03A
:1035DF00900475E0602075822DC007122DAFD007C3
:1035EF0090047BE024FFFDA3E034FFFE90047BED0D
:1035FF00F0EEA3F0805690047FE0F5F0A3E045F0E5
:10360F00604A900473E0602075822BC007122DAFC3
:10361F00D00790047BE024FFFDA3E034FFFE90046D
:10362F007BEDF0EEA3F08024900474E0601E7582B1
:10363F0020C007122DAFD00790047BE024FFFDA31D
:10364F00E034FFFE90047BEDF0EEA3F0900471E008
:10365F00704890047FE0F519A3E0F51A90047BE021
:10366F00FAA3E0FBC0078A068B071ABAFF011BC338
:10367F00E5199EE51A9FD0075053EF60067D307E07
:10368F000080047D207E008D82C007C003C002121F
:10369F002DAFD002D003D00780CA90047BE0FEA3E9
:1036AF00E0FF90047FE0F519A3E0F51AC3E5199E3A
:1036BF00E51A9F500F90047BEEC39519F0EF951A02
:1036CF00A3F0801190047BE4F0A3F0800890047BBA
:1036DF00EAF0EBA3F0900488E0FEA3E0FF90047FF4
:1036EF00E0F519A3E0F51AAA19AD1A151974FFB56B
:1036FF001902151AEA4D6045900479E0B40100E40F
:10370F0033F0900479E070140EBE00010F8E828F9B
:10371F0083E0C4540FFD900461F0800E8E828F837E
:10372F00E0FD53050F900461EDF0900461E0F58228
:10373F00C007C006122DEAD006D00780AA900471E8
:10374F00E07003022EBB90047BE0FEA3E0FF8E032C
:10375F008F051EBEFF011FEB4D7003022EBB75823E
:10376F0020C007C006122DAFD006D00780E08C8294
:10377F00122DAF022EBB900462E0FEA3E08E82F505
:02378F00832293
:0B3C67003C4E4F20464C4F41543E00A5
:10379100AA82AB831237C96003A380F8C3E5829A7A
:1037A100F582E5839BF58322AA83AB828BF090049B
:1037B1008AE0A4F8A9F08AF0E0A429F98BF0A3E04B
:0837C100A429F583888222226D
:0D2009007581211237E5E582600302200693
:1037C90020F71430F6148883A88220F507E6A88329
:1037D90075830022E280F7E49322E02275820022B9
:00000001FF
