:0420000002203F3249
:03200B000228ADFB
:0320980002200E15
:03200E0002297B29
:20209B00AF83E582900400F0EFA3F03099FD900400E0FEA3E0FF8E99C2998E828F832210F6
:2020BB00980280FBAE997F008E828F8322AFF0AE83E582900402F0EEA3F0EFA3F090040290
:2020DB00E0FDA3E0FEA3E0FF7B007C008D828E838FF0123973FA60360DBD00010E900402B2
:2020FB00EDF0EEA3F0EFA3F08A017A0089828A83C007C006C005C004C00312209BD003D07F
:20211B0004D005D006D0070BBB00C10C80BE900402EDF0EEA3F0EFA3F00BBB00010C8B82F7
:20213B008C83227E507FC39004D6E0FCA3E0FD8C828D83E0FD1EBEFF011FEE4F6004ED20D9
:20215B00E7E522E582900405F012213E9004D2E0FEA3E0FF900405E08E828F83F022E5823B
:20217B00900406F012213E9004D4E0FEA3E0FF900406E08E828F83F09004D1E004F0E0FFDD
:20219B00BF100040179004D1E4F09004D0E004F0E0FFBF040040059004D0E4F02212213EDB
:2021BB009004D6E0FEA3E0FF8E828F83E0FE53067F8E8222E582900407F0E04480F5821211
:2021DB00215E12213E22E582900409F0E0FF9004D0F0900408E0FE9004D1F0EF24FC500677
:2021FB009004097403F0EE24F05006900408740FF0900409E090399393FF900408E02FF54E
:20221B00821221CF22AFF0AE83E58290040AF0EEA3F0EFA3F090040DE4F090040EF01221FB
:20223B00B8AF827E00BE0400503AEE90399393FDC3EF9D402C8D037C0074102BFBE43CFC69
:20225B008F017A00C3E99BEA64808CF063F08095F0500E90040DEEF090040EEFC39DF08032
:20227B00030E80C190040AE0FDA3E0FEA3E0FF8D828E838FF0123973607290040EE0FCBC0A
:20229B001000403390040EE4F090040DE02401F0E0FCBC0400400590040DE4F090040DE0BD
:2022BB00FC900408E4F08C82C007C006C0051221E1D005D006D0078D828E838FF012397344
:2022DB00FCA3AD82AE8390040AEDF0EEA3F0EFA3F08C82C007C006C005122179D005D006AF
:2022FB00D00790040EE02401F002228A90040AEDF0EEA3F0EFA3F022AFF0AE83E58290043C
:20231B000FF0EEA3F0EFA3F0900412E4F0900413F01221B8AF827E00BE0400503AEE9039F2
:20233B009393FDC3EF9D402C8D037C0074102BFBE43CFC8F017A00C3E99BEA64808CF063D4
:20235B00F08095F0500E900412EEF0900413EFC39DF080030E80C190040FE0FDA3E0FEA32F
:20237B00E0FF900414EDF0EEA3F0EFA3F08D828E838FF0123973FC70030224C1BC200280CA
:20239B001774012DFAE43EFB8F048A828B838CF012397360030224AE900414E0FAA3E0A38C
:2023BB00E08D01E9C39AFC8D828E838FF0123973FBBB20067A007B0080047A017B00EA2C94
:2023DB00FC900413E0FB7A008C017C00E92BFBEC3AFAC374109B74808AF063F08095F050BA
:2023FB0033900413E4F0900412E02401F0E0FCBC04004005900412E4F0900412E0FC900408
:20241B0008E4F08C82C007C006C0051221E1D005D006D007900414E0F50BA3E0F50CA3E040
:20243B00F50D8D088E098F0A900413E0F9C001A80BA90CAC0DC000C001C004850882850976
:20245B0083850AF0122011158115811581D001402C850B82850C83850DF0123973FCA38593
:20247B00820B85830C8C82C007C006C005C001122179D001D005D006D0070980B0900413A0
:20249B00E9F090041474012508F0E43509A3F0E50AA3F00DBD00010E90040FEDF0EEA3F0FD
:2024BB00EFA3F002238890040FEDF0EEA3F0EFA3F022E582900419F0E0FF900417E090042B
:2024DB0008F08F821221E1900418E0F58212217922E58290041EF0E0FF90041AE0900408E1
:2024FB00F08F821221E190041BE0FDA3E0FEA3E0FF8D828E838FF0122220227582011221DD
:20251B005E9004D0E4F09004D1F012213E2275820212215E9004D0E4F09004D1F012213E9A
:20253B0022E58290041FF0E0FF8F061F90041FEFF0EE602D900420E4F0A3F0900420E0FD08
:20255B00A3E0FEC3ED94E8EE940350DD900420E0FDA3E0FE90042074012DF0E43EA3F08074
:20257B00DA90041FEFF02275823212253C9004D2E0FEA3E0FF8E828F837430F075820F1282
:20259B00253C9004D2E0FEA3E0FF8E828F837430F075820512253C9004D2E0FEA3E0FF8E80
:2025BB00828F837430F075823812215E75820812215E75820C12215E75820612215E12252F
:2025DB00161225299004D0E4F09004D1F0227F00C0071220BAAD82AE83D007BD0D02800303
:2025FB00BD0A17EF2422F582E43404F583E4F090399775F0801220C88035BD300040D1EDEF
:20261B0024C640CC8F047E00C3EC9402EE6480948050BDEF2422F582E43404F5830FEDF034
:20263B007E008D828E83C00712209BD00780A190042275F000122CEE22AFF0AE83E5829025
:20265B000426F0EEA3F0EFA3F0900429E4F0900425E0FF900426E0FCA3E0FDA3E0FEC004BE
:20267B00C005C0068F027B001ABAFF011B900429E0F9F87E00C3E89AEE64808BF063F08048
:20269B0095F0D006D005D004400302274EC007C006C005C004C0011220BAAA82AB83D00173
:2026BB00D004D005D006D007BA0D0302274EBA0A0302274EBA08028003BA7F33900429E0DA
:2026DB00FBE0609AEB14900429F0900008C007C006C005C00412209B90002012209B9000D6
:2026FB000812209BD004D005D006D007022679BA20005003022679EA24855003022679900E
:20271B000429E904F0E92CF8E43DF98E03888289838BF0EA122E127B008A828B83C007C0F3
:20273B0006C005C00412209BD004D005D006D007022679900426E0FDA3E0FEA3E0FF9004FD
:20275B0029E0FC2DFDE43EFE8D828E838FF0E4122E1290399775F080C0041220C8D0048CD7
:20277B0082229004D0E09004CDF09004D1E09004CEF09004CF7401F0229004CFE06017903A
:20279B0004CDE0FF9004CEE0900408F08F821221E19004CFE4F02290042A7420F09004C884
:2027BB00E0FEA3E0FF900478740AF0E4A3F08E828F83122C61AE8274302E90042BF09004A7
:2027DB00C8E0FEA3E0FF900488740AF0E4A3F08E828F83122E4DAE8274302E90042CF090C4
:2027FB00042D743AF09004C6E0FEA3E0FF900478740AF0E4A3F08E828F83122C61AE8274DF
:20281B00302E90042EF09004C6E0FEA3E0FF900488740AF0E4A3F08E828F83122E4DAE82F3
:20283B0074302E90042FF0900430742EF09004C4E02430900431F0900432E4F012277D9081
:20285B0004087408F07582031221E190042A75F000122220122794229004CAE4F022900489
:20287B00CA7401F022C2AF9004C4E4F0A3F09004C6F0A3F09004C8F0A3F09004CB04F0D2DB
:20289B00AF22D2A9D2AF438901758C4B758AF5D28C22C0E0C082C083C007C006C0D075D03C
:2028BB00009004CCE0FFB40100E433F0758C4B758AF59004CCE0700302296EB2939004CAD3
:2028DB00E0700302296E9004C4E0FEA3E0FF0EBE00010F9004C4EEF0EFA3F09004C4E0FE6F
:2028FB00A3E0FFC3EE940AEF940040619004C4E4F0A3F09004C6E0FEA3E0FF0EBE00010F73
:20291B009004C6EEF0EFA3F09004C6E0FEA3E0FFC3EE943CEF940040349004C6E4F0A3F0EF
:20293B009004C8E0FEA3E0FF0EBE00010F9004C8EEF0EFA3F09004C8E0FEA3E0FFC3EE9427
:20295B0064EF940040079004C8E4F0A3F09004CB7401F0D0D0D006D007D083D082D0E032D3
:20297B0012258290399A75F0801220C812289D9039AD75F0801220C8C2931227B29039C24A
:20299B0075F0801220C89004177405F09004187448F07582001224CD9004177406F090042E
:2029BB00187469F07582001224CD90041AE4F090041B74DBF07439A3F07480A3F0758201EE
:2029DB001224EC90399775F0801220C89039FC75F0801220C8903A1D75F0801220C8903A47
:2029FB004D75F0801220C8903A6D75F0801220C8903A9875F0801220C8903AC175F08012B7
:202A1B0020C8903AD475F0801220C8903AE975F0801220C8903B1275F0801220C8903B21FC
:202A3B0075F0801220C8903B3275F0801220C8903B4275F0801220C8903AE975F08012200A
:202A5B00C82098109004CBE060F79004CBE4F01227B280ED1220BAAE828E057F00C006C0F6
:202A7B0005C0077453C0E0743BC0E07480C0E0122F47E58124FBF581D006BE30028032BE6C
:202A9B0061028051BE6203022B57BE6303022BC1BE6403022C26BE6503022C2BBE72030201
:202ABB002C3ABE7303022C30BE7403022C35022C3F903B5875F0801220C89004257402F0DD
:202ADB0090047375F000122654900473E0F582122179022C54903B5875F0801220C89004C1
:202AFB00257402F090047375F000122654903B6E75F0801220C81225E9E5828583F090040D
:202B1B0074F0E5F0A3F0903B7975F0801220C81225E9AE82AF83900476EEF0EFA3F090042B
:202B3B0074E0FCA3E0900473E0FF900417EEF0900418EFF08C821224CD022C54903B887552
:202B5B00F0801220C89004257441F090043375F000122654903B6E75F0801220C81225E9A2
:202B7B00E5828583F0900474F0E5F0A3F0903B7975F0801220C81225E9AE82AF83900476CC
:202B9B00EEF0EFA3F0900474E0FCA3E090041AEEF090041B7433F07404A3F0E4A3F08C82F1
:202BBB001224EC022C54903B8875F0801220C89004257440F090043375F000122654903B44
:202BDB006E75F0801220C81225E9E5828583F0900474F0E5F0A3F0903B7975F0801220C88B
:202BFB001225E9AE82AF83900476EEF0EFA3F0900474E0FCA3E0900408EEF08C821221E1CB
:202C1B0090043375F000122313802E12251680291225828024122879801F122873801A1279
:202C3B0028808015749BC0E0743BC0E07480C0E0122F47158115811581903BAC75F08012F2
:062C5B0020C8022A5C22E1
:20399300004010500A0D004C434420496E697469616C697A6564200A0D0054696D6572209C
:2039B300496E697469616C697A6564200A0D00436C6F636B20446973706C6179205374611D
:2039D30072746564200A0D006141624263436444654566466747684869496A4A6C4C6B4BD2
:2039F3006D4D6E4E6F4F705000486572652069732065766572797468696E6720796F75203E
:203A130063616E20646F3A0A0D00302E205075742061206368617261637465722061742003
:203A330077686572657665722074686520637572736F72206973200A0D00612E20507574D1
:203A530020612063686172616374657220736F6D657768657265200A0D00622E20507574F6
:203A7300206120737472696E6720736F6D65776865726520286C657474657220777261705A
:203A930029200A0D00632E20507574206120737472696E6720736F6D65776865726520285A
:203AB300776F7264207772617029200A0D00642E20436C6561722073637265656E200A0D8D
:203AD30000652E2052652D696E69742073637265656E200A0D002D2D2D2D2D2D2D2D2D2DEF
:203AF3002D2D2D2D2D2D2D2D2D2D2D2D2D2D2D2D2D2D2D2D2D2D2D2D2D2D2D2D0A0D00436D
:203B13006C6F636B204D656E753A200A0D00732E20537461727420436C6F636B0A0D00745D
:203B33002E2053746F7020436C6F636B0A0D00722E20526573657420436C6F636B0A0D0075
:203B530025630A0D00456E74657220746865206368617261637465723A2000576861742079
:203B7300726F773F3A00416E64207768617420636F6C3F3A00456E746572207468652073B1
:203B93007472696E673A2000496E76616C6964206F7074696F6E0A0D00444F4E450D0A0DB3
:023BB3000A0006
:163BC00000000000000001000000000000000080018002800380E8
:202C6100AF83E58290047AF0EFA3F090047CE4F0A3F0900478E0FEA3E0FF7D1090047AE0DC
:202C8100FBA3E0FC90047E235401F0EB2BFBEC33FC90047AEBF0ECA3F090047CE0FBA3E03D
:202CA100FCEB2BFBEC33FC90047CEBF0ECA3F090047EE0600890047CE043E001F090047C13
:202CC100E0FBA3E0FCC3EB9EEC9F401390047CEBC39EF0EC9FA3F090047AE043E001F0DD26
:0D2CE1009B90047AE0FEA3E08E82F5832232
:06206E00E4787FF6D8FDC6
:202CEE00AFF0AE83E58290047FF0EEA3F0EFA3F0900482E4F0A3F090047FE0FDA3E0FEA3F8
:202D0E00E0FF8D828E838FF0123973FCBC20028003BC09120DBD00010E90047FEDF0EEA3DB
:202D2E00F0EFA3F080DC90047FEDF0EEA3F0EFA3F08D828E838FF0123973FC900484E4BCB3
:202D4E002D0104F0BC2D028003BC2B0E90047F74012DF0E43EA3F0EFA3F090047FE0FDA371
:202D6E00E0FEA3E0FF8D828E838FF0123973FCBC30009200405FEC24C69200405890048259
:202D8E00E0FBA3E0FC900486EBF0ECA3F090000AC007C006C005122E2DAB82AC83D005D0FD
:202DAE0006D0078D828E838FF0123973FAA3AD82AE8390047FEDF0EEA3F0EFA3F08A017AD6
:202DCE0000E924D0F9EA34FFFA900482E92BF0EA3CA3F0809090047FEDF0EEA3F0EFA3F022
:202DEE00900484E06011900482E0FEA3E0FFC3E49EFEE49FFF8008900482E0FEA3E0FF8E95
:042E0E00828F83220A
:20204C007916E94400601B7A01903BC078C475A004E493F2A308B8000205A0D9F4DAF27561
:02206C00A0FFD3
:1B2E120020F71130F6138883A88220F509F6A8837583002280FEF280F5F022BF
:202E2D00AA83AB828BF0900486E0A4F8A9F08AF0E0A429F98BF0A3E0A429F58388822222D0
:202E4D00AF83E58290048AF0EFA3F090048CE4F090048AE0FEA3E0FF7D00900488E0FBA3B3
:202E6D00E0FC235401FA7036EB2BFBEC33FC900488EBF0ECA3F0900488E0FBA3E0FCC3EE88
:202E8D009BEF9C5011ECC313CB13CBFC900488EBF0ECA3F080080D90048CEDF080BC90045F
:202EAD008CE0FF90048AE0FDA3E0FE900488E0FBA3E0FCC3ED9BEE9C400B90048AEDC39B1F
:202ECD00F0EE9CA3F0900488E0FDA3E0C313CD13CDFE900488EDF0EEA3F08F061FEE70C38C
:0C2EED0090048AE0FEA3E08E82F58322B0
:202074007800E84400600A790075A004E4F309D8FC78C4E84400600C7901900400E4F0A39F
:04209400D8FCD9FAA1
:202EF900C0188581187E008E8312209BD01822AFF0AE83E58290048EF0EEA3F0EFA3F09081
:202F1900048EE0FDA3E0FEA3E0FF90048DE0FC9004A2E4F0A3F0A3F09004A5EDF0EEA3F062
:202F3900EFA3F09004A8ECF0902EF902304DC018E581F51824FBFF9004A2E4F0A3F0A3F00F
:202F5900E51824FBF89004A5E6F008E6A3F008E6A3F09004A8EFF0902EF912304DD01822C8
:202F7900E58290049EF0E0FF900494E0C0E0A3E0C0E0A3E0C0E0122F94800D900492E0C0BA
:202F9900E0A3E0C0E08F822215811581158190049CE02401F0A3E03400F022E58290049F98
:202FB900F0E02430FF24C6500D74072FFF900491E060034307208F82022F79E5829004A0BD
:202FD900F0E0FFC4540FF582C007122FB4D00753070F8F82022FB4E5829004A1F0900497C2
:202FF900E0FCA3E0FDA3E0FEA3E0FF90049BE0FB9004A1E0FA79208B00E828F519EF235498
:20301900014519FBEC2CFCED33FDEE33FEEF33FFC3EB9A4007EBC39AFB43040119E970D769
:20303900900497ECF0EDA3F0EEA3F0EFA3F090049BEBF022AF83E5829004A9F0EFA3F090E9
:2030590004A9E0FEA3E0FF900492EEF0EFA3F09004A2E0FDA3E0FEA3E0FF900494EDF0EEBB
:20307900A3F0EFA3F090049CE4F0A3F09004A5E0FDA3E0FEA3E0FF8D828E838FF012397315
:20309900FC9004A574012DF0E43EA3F0EFA3F0EC700302394FBC250280030239479004AB09
:2030B900E4F09004ACF09004ADF09004AEF09004AFF09004B0F09004B1F09004B2F090042A
:2030D900B4F09004B5F0A3F09004B714F0A3F09004A5E0FDA3E0FEA3E0FF8D828E838FF0CD
:2030F900123973FBA3AD82AE839004A5EDF0EEA3F0EFA3F09004BBEBF0BB25088B82122F82
:2031190079023085BB300050030231E6EB24C650030231E69004B7E0F50EA3E0F50F74FFA6
:20313900B50E63B50F60C005C006C0079004B5E0FAA3E0FF900486EAF0EFA3F090000AC065
:2031590005C003122E2DAE82AF83D003D0058B027D00EA2EFEED3FFFEE24D0FEEF34FFFFCB
:203179009004B5EEF0EFA3F0D007D006D0059004B5E0F5F0A3E045F060030230F39004AC7D
:203199007401F00230F3C005C006C007900486E50EF0E50FA3F090000AC006C005C00312BC
:2031B9002E2DAA82AF83D003D005D0067E00EB2AFAEE3FFFEA24D0FAEF34FFFF9004B7EAD8
:2031D900F0EFA3F0D007D006D0050230F39004BBE0FBBB2E2FC005C006C0079004B7E0FA04
:2031F900A3E0FFBAFF05BFFF028009D007D006D0050230F3D007D006D0059004B7E4F0A342
:20321900F00230F3BB61004014EB2485400F9004BB74DF5BF09004917401F080059004910C
:20323900E4F09004BBE0FBBB20028075BB2B028067BB2D028059BB4202806FBB4302807C29
:20325900BB44030234DDBB4603023503BB48030230F3BB49030234DDBB4A030230F3BB4C89
:20327900028050BB4F030234EBBB500302344BBB53028077BB54030230F3BB55030234F32C
:20329900BB58030234FBBB5A030230F302350B9004AB7401F00230F39004AD7401F00230AE
:2032B900F39004AE7401F00230F39004B07401F00230F39004B17401F00230F39004B0E075
:2032D900600E9004A8E014F9F09004BBE7F0800F9004A8E024FEFFF08F019004BBE7F09026
:2032F90004BBE0F582122F7902351A9004A8E024FDFFF08F0187050987060987071919905D
:203319000497EDF0EEA3F0EFA3F08D828E838FF012395B85820E85830F9004B7E0FAA3E000
:20333900FDBAFF0DBDFF0A9004B7E50EF0E50FA3F09004ABE0704B9004B5E0FAA3E0FDC3F6
:20335900E50E9AE50F9D503A9004B5EAC3950EF0ED950FA3F09004B5E0FAA3E0FD8A068D3F
:20337900071ABAFF011DEE4F6010758220C005C002122F79D002D00580E39004B5EAF0ED1D
:20339900A3F09004B7E0F511A3E0F512900497E0FAA3E0FDA3E0FF8A828D838FF012397366
:2033B900F510603CC3E4951174808512F063F08095F0502C151174FFB51102151285108218
:2033D900122F79900497E0FAA3E0FDA3E0FF0ABA00010D900497EAF0EDA3F0EFA3F080AC0E
:2033F9009004ABE0700302351A9004B5E0FEA3E0FFC3E50E9EE50F9F400302351A9004B564
:20341900EEC3950EF0EF950FA3F09004B5E0FEA3E0FF8E028F051EBEFF011FEA4D700302B5
:203439003512758220C007C006122F79D006D00780E09004A8E024FDFDF08D0187130987DF
:20345900140987151919900497E513F0E514A3F0E515A3F0900499E0FDBD80004008900419
:20347900BB7443F08020BD600040089004BB7450F08013BD400040089004BB7449F080066F
:203499009004BB7458F09004BBE0FDF582C005122F7975823A122F79758230122F79758223
:2034B90078122F79D005BD4902800EBD50028009900498E0F582122FD4900497E0F5821292
:2034D9002FD4803D9004AF7401F09004B4740AF0802F9004B47408F080279004B4740AF0F5
:2034F900801F9004B47410F080179004B27401F0800F8B82122F7980089004B5EEF0EFA37F
:20351900F09004B2E060719004A8E024FCFFF08F01870309870509870609870719191990C9
:203539000497EBF0EDA3F0EEA3F0EFA3F090049774B5F0743BA3F07480A3F0900497E0F56C
:2035590013A3E0F514A3E0F51574012513FAE43514FBAF15900497EAF0EBA3F0EFA3F08509
:2035790013828514838515F0123973FF70030230858F82122F7980C39004B4E07003023035
:20359900859004B0E060479004A8E014F9F087077E007D007B00900497EFF0EEA3F0EDA38A
:2035B900F0EBA3F09004AFE0600302365D900497E0FBA3E0A3E0A3E07D007E007F009004CC
:2035D90097EBF0EDA3F0EEA3F0EFA3F080769004B1E060289004A8E024FCFFF08F018703F5
:2035F900098705098706098707191919900497EBF0EDA3F0EEA3F0EFA3F080489004A8E038
:2036190024FEFFF08F01870609870719EF3395E0FDFB900497EEF0EFA3F0EDA3F0EBA3F09B
:203639009004AFE0701E900497E0FBA3E0FDA3E0A3E07E007F00900497EBF0EDA3F0EEA320
:20365900F0EFA3F09004AFE06041900497E0FBA3E0FDA3E0FEA3E0FF30E72B900497E0FB4A
:20367900A3E0FDA3E0FEA3E0FFC3E49BFBE49DFDE49EFEE49FFF900497EBF0EDA3F0EEA3DA
:20369900F0EFA3F080059004AFE4F09004B37401F09004B4E0F5117516C1751704E4F50E66
:2036B900F50F90049BE4F0851182122FF09004B3E0703390049BE0C454F0F51390049BE0A9
:2036D900C4540F4513F513851682851783E0FFE5134207851682851783EFF0151674FFB580
:2036F90016021517800C90049BE0FF851682851783F0050EE4B50E02050F9004B3E0B401FB
:2037190000E433F0900497E0FAA3E0FBA3E0FEA3E0FFEA4B4E4F708A9004C2E516F0E517FA
:20373900A3F09004B9E50EF0E50FA3F09004B5E0F5F0A3E045F070099004B57401F0E4A3B2
:20375900F09004ACE0FFE070479004ABE07041850E16850F179004B5E0FAA3E0FBC007AF6F
:20377900160F8F067F00C3EE9AEF9BD0075019758220C007C003C002122F79D002D003D050
:20379900071ABAFF011B80D59004B5EAF0EBA3F09004AFE0602075822DC007122F79D00705
:2037B9009004B5E024FFFDA3E034FFFE9004B5EDF0EEA3F080569004B9E0F5F0A3E045F0AC
:2037D900604A9004ADE0602075822BC007122F79D0079004B5E024FFFDA3E034FFFE90047A
:2037F900B5EDF0EEA3F080249004AEE0601E758220C007122F79D0079004B5E024FFFDA3FE
:20381900E034FFFE9004B5EDF0EEA3F09004ABE070489004B9E0F516A3E0F5179004B5E010
:20383900FAA3E0FBC0078A068B071ABAFF011BC3E5169EE5179FD0075053EF60067D307E2E
:203859000080047D207E008D82C007C003C002122F79D002D003D00780CA9004B5E0FEA30B
:20387900E0FF9004B9E0F516A3E0F517C3E5169EE5179F500F9004B5EEC39516F0EF951703
:20389900A3F080119004B5E4F0A3F080089004B5EAF0EBA3F09004C2E0FEA3E0FF9004B90F
:2038B900E0F516A3E0F517AA16AD17151674FFB516021517EA4D60459004B3E0B40100E4BE
:2038D90033F09004B3E070140EBE00010F8E828F83E0C4540FFD90049BF0800E8E828F8330
:2038F900E0FD53050F90049BEDF090049BE0F582C007C006122FB4D006D00780AA9004AB41
:20391900E070030230859004B5E0FEA3E0FF8E038F051EBEFF011FEB4D7003023085758262
:2039390020C007C006122F79D006D00780E08C82122F7902308590049CE0FEA3E08E82F5E5
:023959008322C7
:0B3BB5003C4E4F20464C4F41543E0058
:18395B00AA82AB831239736003A380F8C3E5829AF582E5839BF58322E6
:20201100E58124FCC3C8C0E0C082E608467006E5824583601218E58296F58208E58396429D
:1B2031008208E5F0964582D082C8D0E0C82275812012398FE582600302200E3A
:1C39730020F71430F6148883A88220F507E6A88375830022E280F7E49322E02263
:04398F00758200221B
:00000001FF
