:03200000022006B5
:03205F0002200359
:032003000227535E
:10206200AF82AE83ADF0FC900500EFF0EEA3F0ED91
:10207200A3F0ECA3F0900500E0FCA3E0FDA3E0FEDA
:10208200A3E0FFC007C006C005C004C004C005C06D
:1020920006C007900FDB75F0497440122B58AB82D3
:1020A200E58124FCF581D004D005D006D007EB6091
:1020B2003774DBC0E0740FC0E074C9C0E07440C084
:1020C200E08C828D838EF0EF12287DAC82AD83AEE0
:1020D200F0FFE58124FCF581900500ECF0EDA3F022
:1020E200EEA3F0EFA3F0808D900500E0FCA3E0FDED
:1020F200A3E0FEA3E0FFC007C006C005C00474DB76
:10210200C0E0740FC0E07449C0E074C0C0E08C82CB
:102112008D838EF0EF122B58AB82E58124FCF58182
:10212200D004D005D006D007EB603774DBC0E07472
:102132000FC0E074C9C0E07440C0E08C828D838E11
:10214200F0EF122BA8A882A983AAF0FBE58124FC58
:10215200F581900500E8F0E9A3F0EAA3F0EBA3F023
:102162008086C007C006C005C004C004C005C00602
:10217200C0078C828D838EF0EF1229158582088527
:10218200830985F00AF50BE58124FCF581D004D0A2
:1021920005D006D007C007C006C005C004C004C0F1
:1021A20005C006C007850882850983850AF0E50B0C
:1021B20012291585820C85830D85F00EF50FE581B8
:1021C20024FCF581C008C009C00AC00B850C8285B9
:1021D2000D83850EF0E50F12291585820885830986
:1021E20085F00AF50BE58124FCF581E4C0E0C0E04E
:1021F20074C0C0E07440C0E0850C82850D83850EFA
:10220200F0E50F123739A882A983AAF0FBE58124F1
:10221200FCF581D004D005D006D007C000C001C0B3
:1022220002C0038C828D838EF0EF12287DAC82ADCA
:1022320083AEF0FFE58124FCF581C007C006C0052E
:10224200C004E4C0E0C0E074F0C0E07442C0E085C5
:102252000882850983850AF0E50B123739A882A91D
:1022620083AAF0FBE58124FCF581D004D005D006D9
:10227200D007C000C001C002C0038C828D838EF0E3
:10228200EF122BA8AC82AD83AEF0FFE58124FCF502
:10229200818C828D838EF0EF22AFF0AE83E5829047
:1022A2000506F0EEA3F0EFA3F0900506E0F510A30B
:1022B200E0F511A3E0F512900504E0FBA3E0FC7940
:1022C200007A00C3E99BEA9C400302241789828AB0
:1022D20083C004C003C002C001122C4AA882AD838D
:1022E200AEF0FFC000C005C006C007900FDB75F05E
:1022F200C9744012291585821385831485F015F55A
:1023020016E58124FCF581D001D002D003D0048BE4
:10231200828C83C004C003C002C001122C4AA8826E
:10232200AD83AEF0FFC000C005C006C007851382B2
:102332008514838515F0E516123739A882AD83AE70
:10234200F0FFE58124FCF58188828D838EF0EF1207
:102352002062A882AD83AEF0FFE4C0E0C0E07480EA
:10236200C0E0743FC0E088828D838EF0EF122BA80C
:10237200A882AD83AEF0FFE58124FCF581C000C0E8
:1023820005C006C00790000075F0FF7442122915BF
:1023920085821385831485F015F516E58124FCF5F5
:1023A20081D001D002D003D004C003C004E92510BB
:1023B200F517EA3511F518851219C004C003C002D9
:1023C200C001E4C0E0C0E0C0E0743FC0E085138219
:1023D2008514838515F0E516122BA8A882AD83AE6D
:1023E200F0FFE58124FCF58188828D838EF0EF1267
:1023F20037FCAF82D001D002D003D004851782858A
:1024020018838519F0EF122B3D09B900010AD00497
:10241200D0030222C522AF83E582900509F0EFA323
:10242200F03099FD900509E0FEA3E0FF8E99C29974
:102432008E828F832210980280FBAE997F008E825B
:102442008F8322AFF0AE83E58290050BF0EEA3F00E
:10245200EFA3F090050BE0FDA3E0FEA3E0FF8D8269
:102462008E838FF0123804FC60270DBD00010E90A0
:10247200050BEDF0EEA3F0EFA3F07B008C828B83D3
:10248200C007C006C005122418D005D006D00780A8
:10249200CD90050BEDF0EEA3F0EFA3F022D292C2A5
:1024A20096C29775C37175C4009038B375F08012E7
:1024B20024452275C30022E58290050EF0E0F5C5A1
:1024C200E5C430E7FB53C47F85C582220022E58242
:1024D20090050FF0900510E4F07F0090050FE0FEEC
:1024E200FC5304807D00EC4D24FF9297EE2E900564
:1024F2000FF0C0071224CED007D296900510E02527
:10250200E0F0309508900510E043E001F0C00712BA
:1025120024CEC2961224CED0070FBF080040BC9032
:102522000510E0F58222E582900511F0C292900535
:1025320076E06022900511E0FFC4540F4430F5822A
:10254200C0071224D0D007EFC454F0FF5307F08F16
:10255200821224D08020900511E0FFC4540F443031
:10256200F582C0071224B9D007EFC454F0FF530715
:10257200F08F821224B9D29222900573E02400F5E2
:1025820082E43404F583E0F582122528900573E095
:1025920004F02290390275F080122445900512E46D
:1025A200F09005137440F090051423F09005157413
:1025B200C0F090051674FFF090051774D0F07438CF
:1025C200A3F07480A3F090051A74D7F07438A3F0C6
:1025D2007480A3F090051D74E2F07438A3F0748047
:1025E200A3F090052074EDF07438A3F07480A3F08A
:1025F20090052374F9F07438A3F07480A3F07F007F
:10260200BF05005059EF75F003A42417F582740535
:1026120035F0F583E0FCA3E0FDA3E0FEC007C004B3
:10262200C005C006741FC0E07439C0E07480C0E009
:10263200122CF3E58124FAF581D007EF2412F582FA
:10264200E43405F583E0F582C00712252890393974
:1026520075F080122445122437D0070F80A2227F02
:1026620000C007122437AD82AE83D007BD0D0280B1
:1026720003BD0A17EF2426F582E43405F583E4F05E
:1026820090395C75F080122445802BBD300040D11A
:10269200ED24C640CCBF030050C7EF2426F582E4E8
:1026A2003405F5830FEDF07E008D828E83C0071214
:1026B2002418D00780AB90052675F000122A192243
:1026C20090395F75F080122445122661AE82AF8385
:1026D2008E048F05C374FF9CE49D500B903979756D
:1026E200F08012244580208E82C0061225287F00A9
:1026F200C0077496C0E07439C0E07480C0E0122C48
:10270200F3E58124FBF5812290395C75F080122477
:10271200459039AC75F0801224459039CD75F08022
:102722001224459039E175F0801224459039EF75F5
:10273200F080122445903A0575F080122445903AB3
:102742001F75F080122445903A3A75F080122445A4
:102752002212249F900504E4F004A3F09004007573
:10276200F00012229B12270A903A6575F08012241B
:1027720045122437AE828E057F008D828F83C0067C
:1027820012241890395C75F080122445D006BE31AF
:10279200028020BE32028020BE330302281DBE34D6
:1027A20003022823BE480302286ABE680302286A7D
:1027B20002287012259580B0903A7575F080122427
:1027C2004520984812257B90052AE4F0A3F0900555
:1027D20074E0FEA3E0FF90052CEEF0EFA3F090046E
:1027E200B0122888AE82AF8390052AE0FCA3E0FDF8
:1027F200C3EC9EED9F50CA90052AE0FEA3E0FF9035
:10280200052A74012EF0E43FA3F080C2122437900F
:102812003A9A75F08012244502276A1226C20227CC
:102822006A900576E0B40100E433F0900576E0604A
:10283200051224B5800312249F900576E060067E7F
:10284200C07F3A80047EC87F3A7D80C006C007C040
:102852000574ADC0E0743AC0E0EDC0E0122CF3E5BF
:102862008124FAF58102276A12270A02276A903A1E
:0B287200D175F08012244502276A2275
:1038B30053504920436F6E74726F6C6C657220496C
:1038C3006E697469616C697A65640A0D003056200B
:1038D30028302900312E323556202836342900323B
:1038E3002E355620283132382900332E37355620CD
:1038F3002831393229003556202832353529000A36
:103903000D2D2D2D2D2D204443204C6576656C20E7
:1039130054657374202D2D2D2D0A0D005365747479
:10392300696E67204368616E6E656C204120746F19
:103933002025730A0D0050726573732061206B6537
:103943007920746F20646F20746865206E657874C5
:103953002076616C75650A0D000A0D00456E74656D
:1039630072204441432076616C75652028302D32E6
:103973003535293A20004572726F723A2056616CD0
:103983007565206D75737420626520302D32353571
:103993000A0D004368616E6E656C20412073657487
:1039A30020746F2025640A0D004865726527732013
:1039B30065766572797468696E6720796F752063BF
:1039C300616E20646F3A200A0D00312E2054657316
:1039D30074204443204C6576656C730A0D00322EC7
:1039E3002073696E20576176650A0D00332E204DD2
:1039F300616E75616C204441432056616C75650AA4
:103A03000D00342E20546F67676C65204269742D56
:103A130042616E67204D6F64650A0D00682E204871
:103A2300656C70202873686F772074686973206DE4
:103A3300656E75290A0D002D2D2D2D2D2D2D2D2D66
:103A43002D2D2D2D2D2D2D2D2D2D2D2D2D2D2D2DA3
:103A53002D2D2D2D2D2D2D2D2D2D2D2D2D2D2D0AB6
:103A63000D000A456E7465722063686F6963653A79
:103A7300200050757420616E792063686172207430
:103A83006F2073746F70207468652073696E20777C
:103A9300617665200A0D0073696E20776176652073
:103AA30073746F707065640A0D004269742D42610E
:103AB3006E67204D6F64652025730A0D00456E61A6
:103AC300626C65640044697361626C656400496E8D
:103AD30076616C69642063686F6963652E20507238
:103AE3006573732027682720666F722068656C7082
:043AF3002E0A0D008A
:043B0200006400005B
:10287D00A8811818C6B2E7C6022BA8AF83E58290CF
:10288D00052EF0EFA3F0900530E4F0A3F090052CA9
:10289D00E0FEA3E0FF7D1090052EE0FBA3E0FC9091
:1028AD000532235401F0EB2BFBEC33FC90052EEBA2
:1028BD00F0ECA3F0900530E0FBA3E0FCEB2BFBEC80
:1028CD0033FC900530EBF0ECA3F0900532E060089E
:1028DD00900530E043E001F0900530E0FBA3E0FC13
:1028ED00C3EB9EEC9F4013900530EBC39EF0EC9F25
:1028FD00A3F090052EE043E001F0DD9B90052EE066
:10290D00FEA3E08E82F583221229B8BC0003022CAF
:10291D0077EF60FA30D502B2D1E583B4FF03022C14
:10292D008DE582B4FF03022C8D2583400724824060
:10293D000B022C772483145003022C8DF582EA8D23
:10294D00F0A4A8F0EA8EF0A428F8E435F0F9EB8DA8
:10295D00F0A428E935F0F9E433CA8FF0A429F9EA97
:10296D0035F0FAEBF88EF0A429F9EA35F0FAE433F4
:10297D00FBEC8DF0A429F9EA35F0FAE43BFBE88F86
:10298D00F0A42AFAEB35F0FBE433CCFD8EF0A42A4B
:10299D00FAEB35F0FBE43CFCED8FF0A42BFBEC35B2
:1029AD00F0FC20E7031229E6022C56AA82AB83A283
:1029BD00F73392D1F5826002D2F7ACF0E58124F9BC
:1029CD00F8E6FD08E6FE0886F008E6A2F73392D594
:0929DD00F5836002D2F7AFF0228D
:06203500E4787FF6D8FDFF
:1029E6007804EC7011E58224F8500AF582E4C9CA2D
:1029F600CBFCD8EF22EC7820058220E713D58201A4
:102A060022C3E933F9EA33FAEB33FBEC33FCD8EAB9
:102A1600158222AFF0AE83E582900533F0EEA3F087
:102A2600EFA3F0900536E4F0A3F0900533E0FDA3A4
:102A3600E0FEA3E0FF8D828E838FF0123804FCBC8B
:102A460020028003BC09120DBD00010E900533ED76
:102A5600F0EEA3F0EFA3F080DC900533EDF0EEA3EB
:102A6600F0EFA3F08D828E838FF0123804FC900570
:102A760038E4BC2D0104F0BC2D028003BC2B0E9063
:102A8600053374012DF0E43EA3F0EFA3F090053377
:102A9600E0FDA3E0FEA3E0FF8D828E838FF0123867
:102AA60004FCBC30009200405FEC24C69200405803
:102AB600900536E0FBA3E0FC90053AEBF0ECA3F0C2
:102AC60090000AC007C006C005122B88AB82AC83F3
:102AD600D005D006D0078D828E838FF0123804FA87
:102AE600A3AD82AE83900533EDF0EEA3F0EFA3F035
:102AF6008A017A00E924D0F9EA34FFFA900536E92A
:102B06002BF0EA3CA3F08090900533EDF0EEA3F0B5
:102B1600EFA3F0900538E06011900536E0FEA3E0E3
:102B2600FFC3E49EFEE49FFF8008900536E0FEA307
:072B3600E0FF8E828F832275
:102013007904E94400601B7A01903B02787375A050
:1020230005E493F2A308B8000205A0D9F4DAF27527
:02203300A0FF0C
:102B3D0020F71130F6138883A88220F509F6A883B3
:102B4D007583002280FEF280F5F022FFA88118180F
:102B5D00122C1FD2D133E6400730E70B75820022CD
:102B6D0020E70675820122C2D1122C01E97003F50E
:102B7D00822220D101B3E433F58222AA83AB828B6A
:102B8D00F090053AE0A4F8A9F08AF0E0A429F98BB9
:0B2B9D00F0A3E0A429F5838882222227
:10203B007800E84400600A790075A004E4F309D83D
:10204B00FC7873E84401600C7902900400E4F0A37F
:04205B00D8FCD9FADA
:102BA8001229B87900E583B58202800D50031237E7
:102BB80007E583C39582123833E5D0C465D020E198
:102BC80017EA2DFAEB3EFBEC3FFC50097401123872
:102BD80033EC4480FC022C56C3EA9DFAEB9EFBECD6
:102BE8009FFC500FC3E499F9E49AFAE49BFBE49C38
:102BF800FCB2D11229E6022C567901AA82E68F820C
:102C0800B5821318E6B5F00E18E6B5830918E68AFA
:102C180082B58202790022B4800FE5F0700AE5835C
:102C28007006E58270027F00EFB6801518B60010B6
:102C380018B6000B18B6000608080876002208081F
:102C48000822E4AC83AB82FAF9748E023829B98081
:102C580003EA13B34010EA2401FAE43BFBE43CFC2A
:102C680050047C800582BC000EBB000BBA0008E44F
:102C7800F5F0F583F58222A2D1E582138CF092F764
:102C88008B838A8222E4F583F58275F080F4A2D1E1
:102C98001322E4F583F58275F0C0747F22C01A858B
:102CA800811A7E008E83122418D01A22AFF0AE83C8
:102CB800E58290053DF0EEA3F0EFA3F090053DE02E
:102CC800FDA3E0FEA3E0FF90053CE0FC900551E485
:102CD800F0A3F0A3F0900554EDF0EEA3F0EFA3F00D
:102CE800900557ECF0902CA5022DF9C01AE581F556
:102CF8001A24FBFF900551E4F0A3F0A3F0E51A2491
:102D0800FBF8900554E6F008E6A3F008E6A3F09077
:102D18000557EFF0902CA5122DF9D01A22E58290D4
:102D2800054DF0E0FF900543E0C0E0A3E0C0E0A35C
:102D3800E0C0E0122D40800D900541E0C0E0A3E026
:102D4800C0E08F822215811581158190054BE02402
:102D580001F0A3E03400F022E58290054EF0E02473
:102D680030FF24C6500D74072FFF900540E0600324
:102D78004307208F82022D25E58290054FF0E0FF62
:102D8800C4540FF582C007122D60D00753070F8F68
:102D980082022D60E582900550F0900546E0FCA384
:102DA800E0FDA3E0FEA3E0FF90054AE0FB9005509C
:102DB800E0FA79208B00E828F51BEF235401451B26
:102DC800FBEC2CFCED33FDEE33FEEF33FFC3EB9A47
:102DD8004007EBC39AFB43040119E970D7900546F5
:102DE800ECF0EDA3F0EEA3F0EFA3F090054AEBF0C2
:102DF80022AF83E582900558F0EFA3F0900558E0E4
:102E0800FEA3E0FF900541EEF0EFA3F0900551E03E
:102E1800FDA3E0FEA3E0FF900543EDF0EEA3F0EF85
:102E2800A3F090054BE4F0A3F0900554E0FDA3E077
:102E3800FEA3E0FF8D828E838FF0123804FC90058C
:102E48005474012DF0E43EA3F0EFA3F0EC700302FC
:102E580036FBBC250280030236F390055AE4F09055
:102E6800055BF090055CF090055DF090055EF090D4
:102E7800055FF0900560F0900561F0900563F090B3
:102E88000564F0A3F090056614F0A3F0900554E0F3
:102E9800FDA3E0FEA3E0FF8D828E838FF01238043D
:102EA800FBA3AD82AE83900554EDF0EEA3F0EFA343
:102EB800F090056AEBF0BB25088B82122D25022EB7
:102EC80031BB30005003022F92EB24C65003022F6F
:102ED80092900566E0F521A3E0F52274FFB5216321
:102EE800B52260C005C006C007900564E0FAA3E0FB
:102EF800FF90053AEAF0EFA3F090000AC005C0037E
:102F0800122B88AE82AF83D003D0058B027D00EAF6
:102F18002EFEED3FFFEE24D0FEEF34FFFF90056458
:102F2800EEF0EFA3F0D007D006D005900564E0F5E9
:102F3800F0A3E045F06003022E9F90055B7401F05A
:102F4800022E9FC005C006C00790053AE521F0E5AE
:102F580022A3F090000AC006C005C003122B88AA5D
:102F680082AF83D003D005D0067E00EB2AFAEE3F6D
:102F7800FFEA24D0FAEF34FFFF900566EAF0EFA3EA
:102F8800F0D007D006D005022E9F90056AE0FBBB63
:102F98002E2FC005C006C007900566E0FAA3E0FF23
:102FA800BAFF05BFFF028009D007D006D005022E60
:102FB8009FD007D006D005900566E4F0A3F0022E56
:102FC8009FBB61004014EB2485400F90056A74DFB5
:102FD8005BF09005407401F08005900540E4F090A6
:102FE800056AE0FBBB20028075BB2B028067BB2D06
:102FF800028059BB4202806FBB4302807CBB440302
:10300800023289BB46030232AFBB4803022E9FBB84
:103018004903023289BB4A03022E9FBB4C028050EF
:10302800BB4F03023297BB50030231F7BB530280F8
:1030380077BB5403022E9FBB550302329FBB580334
:103048000232A7BB5A03022E9F0232B790055A7468
:1030580001F0022E9F90055C7401F0022E9F9005EE
:103068005D7401F0022E9F90055F7401F0022E9F9F
:103078009005607401F0022E9F90055FE0600E904D
:103088000557E014F9F090056AE7F0800F900557AE
:10309800E024FEFFF08F0190056AE7F090056AE0F2
:1030A800F582122D250232C6900557E024FDFFF067
:1030B8008F0187050987060987071919900546EDC5
:1030C800F0EEA3F0EFA3F08D828E838FF0123721FC
:1030D800858221858322900566E0FAA3E0FDBAFF88
:1030E8000DBDFF0A900566E521F0E522A3F09005E5
:1030F8005AE0704B900564E0FAA3E0FDC3E5219A1D
:10310800E5229D503A900564EAC39521F0ED952299
:10311800A3F0900564E0FAA3E0FD8A068D071ABAC9
:10312800FF011DEE4F6010758220C005C002122DF0
:1031380025D002D00580E3900564EAF0EDA3F09075
:103148000566E0F524A3E0F525900546E0FAA3E03E
:10315800FDA3E0FF8A828D838FF0123804F5236087
:103168003CC3E4952474808525F063F08095F05085
:103178002C152474FFB524021525852382122D25CC
:10318800900546E0FAA3E0FDA3E0FF0ABA00010DAE
:10319800900546EAF0EDA3F0EFA3F080AC90055A55
:1031A800E070030232C6900564E0FEA3E0FFC3E5C9
:1031B800219EE5229F40030232C6900564EEC39526
:1031C80021F0EF9522A3F0900564E0FEA3E0FF8EC6
:1031D800028F051EBEFF011FEA4D70030232BE7545
:1031E8008220C007C006122D25D006D00780E090A7
:1031F8000557E024FDFDF08D0187260987270987FB
:10320800281919900546E526F0E527A3F0E528A337
:10321800F0900548E0FDBD8000400890056A7443C1
:10322800F08020BD6000400890056A7450F080135B
:10323800BD4000400890056A7449F0800690056A10
:103248007458F090056AE0FDF582C005122D2575C9
:10325800823A122D25758230122D25758278122D0D
:1032680025D005BD4902800EBD5002800990054752
:10327800E0F582122D80900546E0F582122D8080BF
:103288003D90055E7401F0900563740AF0802F90FC
:1032980005637408F08027900563740AF0801F9016
:1032A80005637410F080179005617401F0800F8B2E
:1032B80082122D258008900564EEF0EFA3F09005AA
:1032C80061E06071900557E024FCFFF08F018703EF
:1032D800098705098706098707191919900546EB13
:1032E800F0EDA3F0EEA3F0EFA3F090054674F7F02D
:1032F800743AA3F07480A3F0900546E0F526A3E0A5
:10330800F527A3E0F52874012526FAE43527FBAF55
:1033180028900546EAF0EBA3F0EFA3F08526828516
:1033280027838528F0123804FF7003022E318F821C
:10333800122D2580C3900563E07003022E3190059D
:103348005FE06047900557E014F9F087077E007D3D
:10335800007B00900546EFF0EEA3F0EDA3F0EBA3A1
:10336800F090055EE06003023409900546E0FBA397
:10337800E0A3E0A3E07D007E007F00900546EBF02F
:10338800EDA3F0EEA3F0EFA3F08076900560E06087
:1033980028900557E024FCFFF08F01870309870573
:1033A800098706098707191919900546EBF0EDA357
:1033B800F0EEA3F0EFA3F08048900557E024FEFF5D
:1033C800F08F01870609870719EF3395E0FDFB9019
:1033D8000546EEF0EFA3F0EDA3F0EBA3F090055E49
:1033E800E0701E900546E0FBA3E0FDA3E0A3E07EAD
:1033F800007F00900546EBF0EDA3F0EEA3F0EFA3FD
:10340800F090055EE06041900546E0FBA3E0FDA377
:10341800E0FEA3E0FF30E72B900546E0FBA3E0FDCC
:10342800A3E0FEA3E0FFC3E49BFBE49DFDE49EFE56
:10343800E49FFF900546EBF0EDA3F0EEA3F0EFA3B9
:10344800F0800590055EE4F09005627401F0900547
:1034580063E0F524752970752A05E4F521F52290B5
:10346800054AE4F0852482122D9C900562E07033B1
:1034780090054AE0C454F0F52690054AE0C4540F7C
:103488004526F526852982852A83E0FFE526420719
:10349800852982852A83EFF0152974FFB52902153D
:1034A8002A800C90054AE0FF852982852A83F00549
:1034B80021E4B521020522900562E0B40100E4335D
:1034C800F0900546E0FAA3E0FBA3E0FEA3E0FFEAE4
:1034D8004B4E4F708A900571E529F0E52AA3F090CC
:1034E8000568E521F0E522A3F0900564E0F5F0A376
:1034F800E045F070099005647401F0E4A3F09005CC
:103508005BE0FFE0704790055AE07041852129850E
:10351800222A900564E0FAA3E0FBC007AF290F8FC9
:10352800067F00C3EE9AEF9BD0075019758220C022
:1035380007C003C002122D25D002D003D0071ABA43
:10354800FF011B80D5900564EAF0EBA3F090055EBF
:10355800E0602075822DC007122D25D007900564E4
:10356800E024FFFDA3E034FFFE900564EDF0EEA338
:10357800F08056900568E0F5F0A3E045F0604A90C9
:10358800055CE0602075822BC007122D25D00790BE
:103598000564E024FFFDA3E034FFFE900564EDF030
:1035A800EEA3F0802490055DE0601E758220C007C0
:1035B800122D25D007900564E024FFFDA3E034FF19
:1035C800FE900564EDF0EEA3F090055AE070489087
:1035D8000568E0F529A3E0F52A900564E0FAA3E080
:1035E800FBC0078A068B071ABAFF011BC3E5299E91
:1035F800E52A9FD0075053EF60067D307E00800497
:103608007D207E008D82C007C003C002122D25D008
:1036180002D003D00780CA900564E0FEA3E0FF90C3
:103628000568E0F529A3E0F52AC3E5299EE52A9F68
:10363800500F900564EEC39529F0EF952AA3F0800A
:1036480011900564E4F0A3F08008900564EAF0EBBB
:10365800A3F0900571E0FEA3E0FF900568E0F5296E
:10366800A3E0F52AAA29AD2A152974FFB529021560
:103678002AEA4D6045900562E0B40100E433F09019
:103688000562E070140EBE00010F8E828F83E0C4C5
:10369800540FFD90054AF0800E8E828F83E0FD5313
:1036A800050F90054AEDF090054AE0F582C007C085
:1036B80006122D60D006D00780AA90055AE0700344
:1036C800022E31900564E0FEA3E0FF8E038F051EF5
:1036D800BEFF011FEB4D7003022E31758220C0071B
:1036E800C006122D25D006D00780E08C82122D2529
:0F36F800022E3190054BE0FEA3E08E82F5832277
:0B3AF7003C4E4F20464C4F41543E0017
:10370700E582C583F582A2D133A2D592D11392D592
:10371700ECCFFCEBCEFBEACDFA22AA82AB831238C0
:10372700046003A380F8C3E5829AF582E5839BF5DD
:1037370083221229B830D502B2D1BF0009BC0003D9
:10374700022C9A022C8DBC0003022C77E583B4FF70
:103757000BE582B4FF03022C9A022C77E582B4FFB3
:1037670003022C8DC395835007247F400B022C77CF
:103777002480145003022C8DF582C3ED9AEE9BEF43
:103787009C40111582C3EA33F9EB33FAEC33FBE4BF
:1037970033FC8005E4CCCBCAF9C08275F019C3E9C4
:1037A7009DEA9EEB9FEC9400D5F002802D400EE938
:1037B7009DF9EA9EFAEB9FFBEC9400FCC3B3E83358
:1037C700F8E58233F582E58333F583C3E933F9EA14
:1037D70033FAEB33FBEC33FC80C4B3E4F938FAE497
:1037E7003582FBE43583FCD082500405827C80124D
:0537F70029E6022C6E22
:0D20060075812A123876E5826003022003FE
:1037FC007F8612387CF5822220F71430F6148883E9
:10380C00A88220F507E6A88375830022E280F7E4FE
:10381C009322E022FCABF0AA83A982749EC2D1F55C
:10382C00821229E6022C566040F82582500274FF61
:10383C00F582E824F8501ECCCBCAF9E4CC24F8501D
:10384C0014CBCAF9E4CB24F8500BCAF9E4CA24F817
:10385C00500379002224086010F8C3EC13FCEB131E
:10386C00FBEA13FAE913F9D8F122758200227F9E44
:10387C001238A130D103022C77C3EF958250097412
:10388C00FFF5F0F583F58222790012383389828AAC
:10389C00838BF0EC22AA82AB83A2F73392D1F58210
:0738AC006002D2F7ACF0222C
:00000001FF
