:0420000002203F3249
:03200B000228ADFB
:0320980002200E15
:03200E00022EB6E9
:20209B00AF83E582900400F0EFA3F03099FD900400E0FEA3E0FF8E99C2998E828F832210F6
:2020BB00980280FBAE997F008E828F8322AFF0AE83E582900402F0EEA3F0EFA3F090040290
:2020DB00E0FDA3E0FEA3E0FF7B007C008D828E838FF01240D4FA60360DBD00010E9004024A
:2020FB00EDF0EEA3F0EFA3F08A017A0089828A83C007C006C005C004C00312209BD003D07F
:20211B0004D005D006D0070BBB00C10C80BE900402EDF0EEA3F0EFA3F00BBB00010C8B82F7
:20213B008C83227E507FC390054AE0FCA3E0FD8C828D83E0FD1EBEFF011FEE4F6004ED2064
:20215B00E7E522E582900405F012213E900546E0FEA3E0FF900405E08E828F83F022E582C6
:20217B00900406F012213E900548E0FEA3E0FF900406E08E828F83F0900545E004F0E0FFF3
:20219B00BF10004017900545E4F0900544E004F0E0FFBF04004005900544E4F02212213E7C
:2021BB0090054AE0FEA3E0FF8E828F83E0FE53067F8E8222E582900407F0E04480F582129C
:2021DB00215E12213E22E582900409F0E0FF900544F0900408E0FE900545F0EF24FC50068D
:2021FB009004097403F0EE24F05006900408740FF0900409E09040F493FF900408E02FF5E6
:20221B00821221CF22AFF0AE83E58290040AF0EEA3F0EFA3F090040DE4F090040EF01221FB
:20223B00B8AF827E00BE0400503AEE9040F493FDC3EF9D402C8D037C0074102BFBE43CFC01
:20225B008F017A00C3E99BEA64808CF063F08095F0500E90040DEEF090040EEFC39DF08032
:20227B00030E80C190040AE0FDA3E0FEA3E0FF8D828E838FF01240D4607290040EE0FCBCA2
:20229B001000403390040EE4F090040DE02401F0E0FCBC0400400590040DE4F090040DE0BD
:2022BB00FC900408E4F08C82C007C006C0051221E1D005D006D0078D828E838FF01240D4DC
:2022DB00FCA3AD82AE8390040AEDF0EEA3F0EFA3F08C82C007C006C005122179D005D006AF
:2022FB00D00790040EE02401F002228A90040AEDF0EEA3F0EFA3F022AFF0AE83E58290043C
:20231B000FF0EEA3F0EFA3F0900412E4F0900413F01221B8AF827E00BE0400503AEE9040EB
:20233B00F493FDC3EF9D402C8D037C0074102BFBE43CFC8F017A00C3E99BEA64808CF06373
:20235B00F08095F0500E900412EEF0900413EFC39DF080030E80C190040FE0FDA3E0FEA32F
:20237B00E0FF900414EDF0EEA3F0EFA3F08D828E838FF01240D4FC70030224C1BC20028062
:20239B001774012DFAE43EFB8F048A828B838CF01240D460030224AE900414E0FAA3E0A324
:2023BB00E08D01E9C39AFC8D828E838FF01240D4FBBB20067A007B0080047A017B00EA2C2C
:2023DB00FC900413E0FB7A008C017C00E92BFBEC3AFAC374109B74808AF063F08095F050BA
:2023FB0033900413E4F0900412E02401F0E0FCBC04004005900412E4F0900412E0FC900408
:20241B0008E4F08C82C007C006C0051221E1D005D006D007900414E0F50BA3E0F50CA3E040
:20243B00F50D8D088E098F0A900413E0F9C001A80BA90CAC0DC000C001C004850882850976
:20245B0083850AF0122011158115811581D001402C850B82850C83850DF01240D4FCA3852B
:20247B00820B85830C8C82C007C006C005C001122179D001D005D006D0070980B0900413A0
:20249B00E9F090041474012508F0E43509A3F0E50AA3F00DBD00010E90040FEDF0EEA3F0FD
:2024BB00EFA3F002238890040FEDF0EEA3F0EFA3F022E582900419F0E0FF900417E090042B
:2024DB0008F08F821221E1900418E0F58212217922E58290041EF0E0FF90041AE0900408E1
:2024FB00F08F821221E190041BE0FDA3E0FEA3E0FF8D828E838FF0122220227582011221DD
:20251B005E900544E4F0900545F012213E2275820212215E900544E4F0900545F012213EC6
:20253B0022E58290041FF0E0FF8F061F90041FEFF0EE602D900420E4F0A3F0900420E0FD08
:20255B00A3E0FEC3ED94E8EE940350DD900420E0FDA3E0FE90042074012DF0E43EA3F08074
:20257B00DA90041FEFF02275823212253C900546E0FEA3E0FF8E828F837430F075820F120D
:20259B00253C900546E0FEA3E0FF8E828F837430F075820512253C900546E0FEA3E0FF8E96
:2025BB00828F837430F075823812215E75820812215E75820C12215E75820612215E12252F
:2025DB0016122529900544E4F0900545F0227F00C0071220BAAD82AE83D007BD0D02800319
:2025FB00BD0A17EF2422F582E43404F583E4F09040F875F0801220C88035BD300040D1ED87
:20261B0024C640CC8F047E00C3EC9402EE6480948050BDEF2422F582E43404F5830FEDF034
:20263B007E008D828E83C00712209BD00780A190042275F00012332222AFF0AE83E58290EA
:20265B000426F0EEA3F0EFA3F0900429E4F0900425E0FF900426E0FCA3E0FDA3E0FEC004BE
:20267B00C005C0068F027B001ABAFF011B900429E0F9F87E00C3E89AEE64808BF063F08048
:20269B0095F0D006D005D004400302274EC007C006C005C004C0011220BAAA82AB83D00173
:2026BB00D004D005D006D007BA0D0302274EBA0A0302274EBA08028003BA7F33900429E0DA
:2026DB00FBE0609AEB14900429F0900008C007C006C005C00412209B90002012209B9000D6
:2026FB000812209BD004D005D006D007022679BA20005003022679EA24855003022679900E
:20271B000429E904F0E92CF8E43DF98E03888289838BF0EA1234467B008A828B83C007C0B9
:20273B0006C005C00412209BD004D005D006D007022679900426E0FDA3E0FEA3E0FF9004FD
:20275B0029E0FC2DFDE43EFE8D828E838FF0E41234469040F875F080C0041220C8D0048C35
:20277B008222900544E0900541F0900545E0900542F09005437401F022900543E06017907C
:20279B000541E0FF900542E0900408F08F821221E1900543E4F02290042A7420F090053CB0
:2027BB00E0FEA3E0FF9004E5740AF0E4A3F08E828F83123295AE8274302E90042BF09005FF
:2027DB003CE0FEA3E0FF9004F5740AF0E4A3F08E828F83123481AE8274302E90042CF090A9
:2027FB00042D743AF090053AE0FEA3E0FF9004E5740AF0E4A3F08E828F83123295AE8274C3
:20281B00302E90042EF090053AE0FEA3E0FF9004F5740AF0E4A3F08E828F83123481AE82D7
:20283B0074302E90042FF0900430742EF0900538E02430900431F0900432E4F012277D900C
:20285B0004087408F07582031221E190042A75F0001222201227942290053EE4F022900513
:20287B003E7401F022C2AF900538E4F0A3F090053AF0A3F090053CF0A3F090053F04F0D293
:20289B00AF22D2A9D2AF438901758C4B758AF5D28C22C0E0C082C083C007C006C0D075D03C
:2028BB0000900540E0FFB40100E433F0758C4B758AF5900540E0700302296EB29390053E74
:2028DB00E0700302296E900538E0FEA3E0FF0EBE00010F900538EEF0EFA3F0900538E0FE10
:2028FB00A3E0FFC3EE940AEF94004061900538E4F0A3F090053AE0FEA3E0FF0EBE00010F89
:20291B0090053AEEF0EFA3F090053AE0FEA3E0FFC3EE943CEF9400403490053AE4F0A3F090
:20293B0090053CE0FEA3E0FF0EBE00010F90053CEEF0EFA3F090053CE0FEA3E0FFC3EE94C8
:20295B0064EF9400400790053CE4F0A3F090053F7401F0D0D0D006D007D083D082D0E032E9
:20297B00900439E4F090043AF0900439E0FFBF05004003022A0CC0071220BAAD82AE83D00F
:20299B0007BD301EEF2433F582E43404F583EDF0900020C00712209BD007900439EF04F011
:2029BB0080C7BD311EEF2433F582E43404F583EDF0900023C00712209BD007900439EF049D
:2029DB00F080A6BD08028003BD7F9E900439E0FFE07003022984EF14900439F0900008128A
:2029FB00209B90002012209B90000812209B0229847F00BF0500502CEF2433F582E43404D8
:202A1B00F583E0FEBE311A8F067404C39EF5F005F07401800225E0D5F0FBFE90043AE04E3E
:202A3B00F00F80CF90043AE0F58222E58290043EF012277D90043EE0FF90043BE0FCA3E028
:202A5B00FDA3E0FE7B008F02EAC40354F8FA74404A4BF582C007C006C005C004C00312210E
:202A7B005ED003D004D005D006EB2CF8E43DF98E02888289838AF01240D4F582C006C0051A
:202A9B00C004C003122179D003D004D005D006D0070BBB080040AF122794229040FB75F0E3
:202ABB00801220C81225E9E582FE24F8500C90411F75F0801220C8022B6C90415775F0800F
:202ADB00C0061220C8D0067F00BF080050688F047D00C007C006C004C0057494C0E07441C4
:202AFB00C0E07480C0E07447C0E07404C0E0E4C0E01235FEE58124F8F58190044775F00013
:202B1B001220C8D006D007EF243FFCE43404FDC007C006C005C00412297BAB82D004D005EA
:202B3B008C828D83EBF09040F875F0801220C8D006D0070F809390043B743FF07404A3F08E
:202B5B00E4A3F08E82122A4690419D75F0801220C8229041B975F0801220C89041D075F073
:202B7B00801220C89041FB75F0801220C812277D7F00BF04004003022C75EF24F4FDE4341B
:202B9B0040FE8D828E83E493F582C007C006C0051221CFD005D006D0078D828E83E493FC65
:202BBB007B008F017A00C007C006C005C004C003C001C002742EC0E07442C0E07480C0E0ED
:202BDB007465C0E07404C0E0E4C0E01235FEE58124F6F58190046575F0001220C8D005D08D
:202BFB0006D0077C00BC1000505F8D828E83E4932CF582C007C006C005C0041221CF122161
:202C1B003E90054CE0FAA3E0FB8A828B83E0FA7B00C002C0037441C0E07442C0E07480C0CF
:202C3B00E07479C0E07404C0E0E4C0E01235FEE58124F8F58190047975F0001220C8D004F3
:202C5B00D005D006D0070C809C90424975F080C0071220C8D0070F022B8D1227942290428D
:202C7B004E75F0801220C890426375F0801220C890429575F0801220C812277D7F00BF08B6
:202C9B00004003022DE49042CA75F080C0071220C8D0078F057E0074302DFDE43EFE8D829B
:202CBB008E83C00712209B9042D575F0801220C8D0078F067D00BD08004003022DD3C00714
:202CDB008E04ECC40354F8FC74404C4DFCF582C007C006C005C00412215E12213ED004D0D0
:202CFB0005D006D00790054CE0FAA3E0FB8A828B83E0FA900481F07B008C017C008D007F45
:202D1B0000C007C006C005C002C003C001C004C000C00774D9C0E07442C0E07480C0E0746A
:202D3B0082C0E07404C0E0E4C0E01235FEE58124F4F58190048275F0001220C8D005D00661
:202D5B00D007900481E0F50E750F04D007E50F20E74DAC0F8CF005F07C017B008006EC2C20
:202D7B00FCEB33FBD5F0F7A90E7A00E95204EA5203EC4B6014900023C007C006C0051220D6
:202D9B009BD005D006D0078012900020C007C006C00512209BD005D006D007150F80AE9036
:202DBB0040F875F080C007C006C0051220C8D005D006D0070D022CD19040F875F080C0078D
:202DDB001220C8D0070F022C99122794229040F875F0801220C8122B6D9040F875F0801232
:202DFB0020C8122C79229040F875F0801220C89042F675F0801220C890431775F0801220A8
:202E1B00C890434075F0801220C890437075F0801220C890439075F0801220C89043BB7576
:202E3B00F0801220C89043E475F0801220C89043F775F0801220C890431775F0801220C805
:202E5B0090440C75F0801220C890442A75F0801220C890444F75F0801220C890445F75F021
:202E7B00801220C890431775F0801220C890446E75F0801220C890447D75F0801220C89013
:202E9B00448E75F0801220C890449E75F0801220C890431775F0801220C82212258290449D
:202EBB00AF75F0801220C812289D9044C275F0801220C8C2931227B29044D775F08012201B
:202EDB00C89004177401F09004187448F07582011224CD9004177402F09004187469F075AD
:202EFB0082011224CD90043B744EF07405A3F0E4A3F0758200122A4690043B7456F07405B2
:202F1B00A3F0E4A3F0758201122A4690043B745EF07405A3F0E4A3F0758202122A469004EF
:202F3B003B7466F07405A3F0E4A3F0758203122A4690043B746EF07405A3F0E4A3F0758257
:202F5B0004122A46900417740DF09004187401F07582011224CD9004177404F090041803E6
:202F7B00F07582011224CD9004177407F09004187403F07582011224CD9004177408F09080
:202F9B0004187403F07582011224CD9004177409F09004187404F07582011224CD900417C6
:202FBB00740AF09004187403F07582011224CD900417740BF09004187404F075820112241E
:202FDB00CD122E0120981090053FE060F790053FE4F01227B280ED1220BAAE828E057F00C7
:202FFB00C006C005C00774F0C0E07444C0E07480C0E01236A8E58124FBF581D006BE3002C3
:20301B00804ABE61028069BE62030230F2BE630302315CBE64030231C2BE65030231C8BECE
:20303B0066030231CEBE67030231D4BE6803023257BE690302325CBE720302326BBE730368
:20305B00023261BE74030232660232709044F575F0801220C89004257402F09004E075F0AD
:20307B00001226549004E0E0F5821221790232889044F575F0801220C89004257402F0901F
:20309B0004E075F00012265490450B75F0801220C81225E9E5828583F09004E1F0E5F0A325
:2030BB00F090451675F0801220C81225E9AE82AF839004E3EEF0EFA3F09004E1E0FCA3E00E
:2030DB009004E0E0FF900417EEF0900418EFF08C821224CD02328890452575F0801220C8C8
:2030FB009004257441F09004A075F00012265490450B75F0801220C81225E9E5828583F0F4
:20311B009004E1F0E5F0A3F090451675F0801220C81225E9AE82AF839004E3EEF0EFA3F0A4
:20313B009004E1E0FCA3E090041AEEF090041B74A0F07404A3F0E4A3F08C821224EC02327B
:20315B008890452575F0801220C89004257440F09004A075F00012265490450B75F080129A
:20317B0020C81225E9E5828583F09004E1F0E5F0A3F090451675F0801220C81225E9AE82E6
:20319B00AF839004E3EEF0EFA3F09004E1E0FCA3E0900408EEF08C821221E19004A075F002
:2031BB0000122313023288122516023288122582023288122AB602328890453875F08012C0
:2031DB0020C89004257402F09004E075F0001226549004E0E0FFBF30004005EF24C8500CAA
:2031FB0090411F75F0801220C802328890450B75F0801220C81225E9E5828583F09004E176
:20321B00F0E5F0A3F090451675F0801220C81225E9AE82AF839004E3EEF0EFA3F09004E1A3
:20323B00E0FCA3E09004E0E024D0FF900417EEF0900418EFF08C821224CD8031122E018036
:20325B002C122DE880271228798022122873801D1228808018745CC0E07445C0E07480C0EB
:1A327B00E01236A8158115811581122E0190456D75F0801220C8022FDF2213
:2040F400004010500A0D00456E74657220637573746F6D2063686172616374657220636F7D
:2041140064652028302D37293A20004572726F723A20437573746F6D20636861726163748E
:20413400657220636F6465206D757374206265206265747765656E203020616E6420372ED7
:204154000A0D00456E746572203520626974732070657220726F77202830206F722031293D
:204174002C20707265737320456E746572206166746572206561636820726F773A0A0D00E8
:20419400526F772025643A2000437573746F6D20636861726163746572206D616465203A77
:2041B40029200A0D000A0D4C434420444452414D204845582044554D500A0D005B526F7714
:2041D4005D205B416464726573735D3A20446174612028313620627974657320706572207F
:2041F400726F77290A0D002D2D2D2D2D2D2D2D2D2D2D2D2D2D2D2D2D2D2D2D2D2D2D2D2DAE
:204214002D2D2D2D2D2D2D2D2D2D2D2D2D2D2D2D2D2D2D2D2D2D2D0A0D00526F7720256487
:20423400205B3078253032585D3A0A0D0030782530325820000A0D0A0D004C434420434768
:2042540052414D204845582044554D500A0D005B436861725D205B526F775D3A204461743F
:204274006120283820636861726163746572732078203820726F77732065616368290A0D3D
:20429400002D2D2D2D2D2D2D2D2D2D2D2D2D2D2D2D2D2D2D2D2D2D2D2D2D2D2D2D2D2D2D97
:2042B4002D2D2D2D2D2D2D2D2D2D2D2D2D2D2D2D2D2D2D0A0D0043686172616374657220CF
:2042D400003A0A0D002020526F77202564205B3078253032585D3A20307825303258203DBB
:2042F4002000486572652069732065766572797468696E6720796F752063616E20646F3AA9
:204314000A0D002D2D2D2D2D2D2D2D2D2D2D2D2D2D2D2D2D2D2D2D2D2D2D2D2D2D2D2D2D59
:204334002D2D2D2D2D2D2D2D2D0A0D00302E20507574206120636861726163746572206137
:20435400742077686572657665722074686520637572736F72206973200A0D00612E2050FC
:20437400757420612063686172616374657220736F6D657768657265200A0D00622E2050CC
:204394007574206120737472696E6720736F6D65776865726520286C657474657220777218
:2043B400617029200A0D00632E20507574206120737472696E6720736F6D657768657265A7
:2043D4002028776F7264207772617029200A0D00642E20436C6561722073637265656E2032
:2043F4000A0D00652E2052652D696E69742073637265656E200A0D00662E204372656174CD
:204414006520437573746F6D20436861726163746572200A0D00672E20507574204375736B
:20443400746F6D2043686172616374657220736F6D657768657265200A0D00682E204865E2
:204454006C70204D656E75200A0D00692E204865782044756D70200A0D00436C6F636B20AB
:204474004D656E753A200A0D00732E20537461727420436C6F636B0A0D00742E2053746F38
:204494007020436C6F636B0A0D00722E20526573657420436C6F636B0A0D004C4344204953
:2044B4006E697469616C697A6564200A0D0054696D657220496E697469616C697A656420CD
:2044D4000A0D00436C6F636B20446973706C61792053746172746564200A0D0025630A0D02
:2044F40000456E74657220746865206368617261637465723A20005768617420726F773FD7
:204514003A00416E64207768617420636F6C3F3A00456E7465722074686520737472696EE0
:20453400673A2000456E7465722074686520637573746F6D20636861726163746572206E31
:20455400756D6265723A2000496E76616C6964206F7074696F6E0A0D00444F4E450D0A0DF1
:024574000A003B
:2045810000000000000001000000000000000080018002800380150A150A150A150A000A8D
:1E45A10015110A040000000A00040A04111F020302120E0A0A00180808090E0A0A00EE
:20329500AF83E5829004E7F0EFA3F09004E9E4F0A3F09004E5E0FEA3E0FF7D109004E7E0EE
:2032B500FBA3E0FC9004EB235401F0EB2BFBEC33FC9004E7EBF0ECA3F09004E9E0FBA3E0BC
:2032D500FCEB2BFBEC33FC9004E9EBF0ECA3F09004EBE060089004E9E043E001F09004E925
:2032F500E0FBA3E0FCC3EB9EEC9F40139004E9EBC39EF0EC9FA3F09004E7E043E001F0DD12
:0D3315009B9004E7E0FEA3E08E82F583228A
:06206E00E4787FF6D8FDC6
:20332200AFF0AE83E5829004ECF0EEA3F0EFA3F09004EFE4F0A3F09004ECE0FDA3E0FEA376
:20334200E0FF8D828E838FF01240D4FCBC20028003BC09120DBD00010E9004ECEDF0EEA3CC
:20336200F0EFA3F080DC9004ECEDF0EEA3F0EFA3F08D828E838FF01240D4FC9004F1E4BC37
:203382002D0104F0BC2D028003BC2B0E9004EC74012DF0E43EA3F0EFA3F09004ECE0FDA35D
:2033A200E0FEA3E0FF8D828E838FF01240D4FCBC30009200405FEC24C6920040589004EF4A
:2033C200E0FBA3E0FC9004F3EBF0ECA3F090000AC007C006C005123461AB82AC83D005D01C
:2033E20006D0078D828E838FF01240D4FAA3AD82AE839004ECEDF0EEA3F0EFA3F08A017AC7
:2034020000E924D0F9EA34FFFA9004EFE92BF0EA3CA3F080909004ECEDF0EEA3F0EFA3F00D
:203422009004F1E060119004EFE0FEA3E0FFC3E49EFEE49FFF80089004EFE0FEA3E0FF8E13
:04344200828F8322D0
:20204C00793EE94400601B7A01904581783875A005E493F2A308B8000205A0D9F4DAF275F9
:02206C00A0FFD3
:1B34460020F71130F6138883A88220F509F6A8837583002280FEF280F5F02285
:20346100AA83AB828BF09004F3E0A4F8A9F08AF0E0A429F98BF0A3E0A429F5838882222229
:20348100AF83E5829004F7F0EFA3F09004F9E4F09004F7E0FEA3E0FF7D009004F5E0FBA3C5
:2034A100E0FC235401FA7036EB2BFBEC33FC9004F5EBF0ECA3F09004F5E0FBA3E0FCC3EE74
:2034C1009BEF9C5011ECC313CB13CBFC9004F5EBF0ECA3F080080D9004F9EDF080BC90044B
:2034E100F9E0FF9004F7E0FDA3E0FE9004F5E0FBA3E0FCC3ED9BEE9C400B9004F7EDC39B31
:20350100F0EE9CA3F09004F5E0FDA3E0C313CD13CDFE9004F5EDF0EEA3F08F061FEE70C377
:0C3521009004F7E0FEA3E08E82F5832208
:202074007800E84400600A790075A004E4F309D8FC7838E84401600C7902900400E4F0A329
:04209400D8FCD9FAA1
:20352D00C010858110C082058105810581E51024FBF8A9100909E6F708E609F708E609F734
:20354D00A810080886820886830886F01240D4FAA31240D4FBA31240D4FF74012AFCE43B99
:20356D00FD8F06A810080886820886830886F0EC123446A3ED123446A3EE1234468A828B05
:20358D00838FF0A81008E6123446851081D01022AFF0AE83E5829004FEF0EEA3F0EFA3F016
:2035AD009004FAE0FDA3E0FEA3E0FF9004FDE0FC90051674FEF07404A3F0E4A3F0900519E6
:2035CD00EDF0EEA3F0EFA3F090051CECF090352D1237AEAE82AF839004FEE0FBA3E0FCA397
:2035ED00E0FD8B828C838DF0E41234468E828F8322C010E581F51024F8FFE51024FBFE7DAF
:20360D00007C40900516EEF0EDA3F0ECA3F0E51024F8F8900519E6F008E6A3F008E6A3F0CA
:20362D0090051CEFF090352D1237AEAE82AF83E51024FBF886030886040886058B828C83CC
:0D364D008DF0E41234468E828F83D010225F
:20365A00C0108581107E008E8312209BD01022AFF0AE83E582900502F0EEA3F0EFA3F090BB
:20367A000502E0FDA3E0FEA3E0FF900501E0FC900516E4F0A3F0A3F0900519EDF0EEA3F026
:20369A00EFA3F090051CECF090365A0237AEC010E581F51024FBFF900516E4F0A3F0A3F0FC
:2036BA00E51024FBF8900519E6F008E6A3F008E6A3F090051CEFF090365A1237AED01022B5
:2036DA00E582900512F0E0FF900508E0C0E0A3E0C0E0A3E0C0E01236F5800D900506E0C08B
:2036FA00E0A3E0C0E08F8222158115811581900510E02401F0A3E03400F022E58290051346
:20371A00F0E02430FF24C6500D74072FFF900505E060034307208F820236DAE58290051402
:20373A00F0E0FFC4540FF582C007123715D00753070F8F82023715E582900515F090050B9D
:20375A00E0FCA3E0FDA3E0FEA3E0FF90050FE0FB900515E0FA79208B00E828F51BEF235443
:20377A0001451BFBEC2CFCED33FDEE33FEEF33FFC3EB9A4007EBC39AFB43040119E970D7FF
:20379A0090050BECF0EDA3F0EEA3F0EFA3F090050FEBF022AF83E58290051DF0EFA3F09022
:2037BA00051DE0FEA3E0FF900506EEF0EFA3F0900516E0FDA3E0FEA3E0FF900508EDF0EE7F
:2037DA00A3F0EFA3F0900510E4F0A3F0900519E0FDA3E0FEA3E0FF8D828E838FF01240D45B
:2037FA00FC90051974012DF0E43EA3F0EFA3F0EC70030240B0BC250280030240A890051FE7
:20381A00E4F0900520F0900521F0900522F0900523F0900524F0900525F0900526F090058D
:20383A0028F0900529F0A3F090052B14F0A3F0900519E0FDA3E0FEA3E0FF8D828E838FF091
:20385A001240D4FBA3AD82AE83900519EDF0EEA3F0EFA3F090052FEBF0BB25088B821236C0
:20387A00DA0237E6BB30005003023947EB24C6500302394790052BE0F511A3E0F51274FF28
:20389A00B51163B51260C005C006C007900529E0FAA3E0FF9004F3EAF0EFA3F090000AC015
:2038BA0005C003123461AE82AF83D003D0058B027D00EA2EFEED3FFFEE24D0FEEF34FFFF29
:2038DA00900529EEF0EFA3F0D007D006D005900529E0F5F0A3E045F060030238549005204D
:2038FA007401F0023854C005C006C0079004F3E511F0E512A3F090000AC006C005C0031278
:20391A003461AA82AF83D003D005D0067E00EB2AFAEE3FFFEA24D0FAEF34FFFF90052BEAC0
:20393A00F0EFA3F0D007D006D00502385490052FE0FBBB2E2FC005C006C00790052BE0FA48
:20395A00A3E0FFBAFF05BFFF028009D007D006D005023854D007D006D00590052BE4F0A3FB
:20397A00F0023854BB61004014EB2485400F90052F74DF5BF09005057401F08005900505DC
:20399A00E4F090052FE0FBBB20028075BB2B028067BB2D028059BB4202806FBB4302807C4C
:2039BA00BB4403023C3EBB4603023C64BB4803023854BB4903023C3EBB4A03023854BB4C15
:2039DA00028050BB4F03023C4CBB5003023BACBB53028077BB5403023854BB5503023C5421
:2039FA00BB5803023C5CBB5A03023854023C6C90051F7401F00238549005217401F00238B1
:203A1A00549005227401F00238549005247401F00238549005257401F0023854900524E09C
:203A3A00600E90051CE014F9F090052FE7F0800F90051CE024FEFFF08F0190052FE7F090E9
:203A5A00052FE0F5821236DA023C7B90051CE024FDFFF08F0187050987060987071919903A
:203A7A00050BEDF0EEA3F0EFA3F08D828E838FF01240BC85821185831290052BE0FAA3E040
:203A9A00FDBAFF0DBDFF0A90052BE511F0E512A3F090051FE0704B900529E0FAA3E0FDC329
:203ABA00E5119AE5129D503A900529EAC39511F0ED9512A3F0900529E0FAA3E0FD8A068DE1
:203ADA00071ABAFF011DEE4F6010758220C005C0021236DAD002D00580E3900529EAF0EDD8
:203AFA00A3F090052BE0F514A3E0F51590050BE0FAA3E0FDA3E0FF8A828D838FF01240D4A6
:203B1A00F513603CC3E4951474808515F063F08095F0502C151474FFB5140215158513829A
:203B3A001236DA90050BE0FAA3E0FDA3E0FF0ABA00010D90050BEAF0EDA3F0EFA3F080AC53
:203B5A0090051FE07003023C7B900529E0FEA3E0FFC3E5119EE5129F4003023C7B900529C6
:203B7A00EEC39511F0EF9512A3F0900529E0FEA3E0FF8E028F051EBEFF011FEA4D700302D2
:203B9A003C73758220C007C0061236DAD006D00780E090051CE024FDFDF08D01871609872F
:203BBA0017098718191990050BE516F0E517A3F0E518A3F090050DE0FDBD800040089005B7
:203BDA002F7443F08020BD6000400890052F7450F08013BD4000400890052F7449F08006A9
:203BFA0090052F7458F090052FE0FDF582C0051236DA75823A1236DA7582301236DA758299
:203C1A00781236DAD005BD4902800EBD5002800990050CE0F58212373590050BE0F582126E
:203C3A003735803D9005237401F0900528740AF0802F9005287408F08027900528740AF04F
:203C5A00801F9005287410F080179005267401F0800F8B821236DA8008900529EEF0EFA34F
:203C7A00F0900526E0607190051CE024FCFFF08F0187030987050987060987071919199077
:203C9A00050BEBF0EDA3F0EEA3F0EFA3F090050B7476F07445A3F07480A3F090050BE0F5DA
:203CBA0016A3E0F517A3E0F51874012516FAE43517FBAF1890050BEAF0EBA3F0EFA3F0851A
:203CDA0016828517838518F01240D4FF70030237E68F821236DA80C3900528E07003023710
:203CFA00E6900524E0604790051CE014F9F087077E007D007B0090050BEFF0EEA3F0EDA362
:203D1A00F0EBA3F0900523E06003023DBE90050BE0FBA3E0A3E0A3E07D007E007F00900510
:203D3A000BEBF0EDA3F0EEA3F0EFA3F08076900525E0602890051CE024FCFFF08F0187032E
:203D5A0009870509870609870719191990050BEBF0EDA3F0EEA3F0EFA3F0804890051CE0E5
:203D7A0024FEFFF08F01870609870719EF3395E0FDFB90050BEEF0EFA3F0EDA3F0EBA3F0BE
:203D9A00900523E0701E90050BE0FBA3E0FDA3E0A3E07E007F0090050BEBF0EDA3F0EEA359
:203DBA00F0EFA3F0900523E0604190050BE0FBA3E0FDA3E0FEA3E0FF30E72B90050BE0FB83
:203DDA00A3E0FDA3E0FEA3E0FFC3E49BFBE49DFDE49EFEE49FFF90050BEBF0EDA3F0EEA3FD
:203DFA00F0EFA3F08005900523E4F09005277401F0900528E0F514751935751A05E4F5111E
:203E1A00F51290050FE4F0851482123751900527E0703390050FE0C454F0F51690050FE0FA
:203E3A00C4540F4516F516851982851A83E0FFE5164207851982851A83EFF0151974FFB5FF
:203E5A001902151A800C90050FE0FF851982851A83F00511E4B511020512900527E0B40193
:203E7A0000E433F090050BE0FAA3E0FBA3E0FEA3E0FFEA4B4E4F708A900536E519F0E51AA2
:203E9A00A3F090052DE511F0E512A3F0900529E0F5F0A3E045F070099005297401F0E4A3E5
:203EBA00F0900520E0FFE0704790051FE0704185111985121A900529E0FAA3E0FBC007AF9C
:203EDA00190F8F067F00C3EE9AEF9BD0075019758220C007C003C0021236DAD002D003D07D
:203EFA00071ABAFF011B80D5900529EAF0EBA3F0900523E0602075822DC0071236DAD0074B
:203F1A00900529E024FFFDA3E034FFFE900529EDF0EEA3F0805690052DE0F5F0A3E045F0E4
:203F3A00604A900521E0602075822BC0071236DAD007900529E024FFFDA3E034FFFE9005BE
:203F5A0029EDF0EEA3F08024900522E0601E758220C0071236DAD007900529E024FFFDA3CF
:203F7A00E034FFFE900529EDF0EEA3F090051FE0704890052DE0F519A3E0F51A900529E0CE
:203F9A00FAA3E0FBC0078A068B071ABAFF011BC3E5199EE51A9FD0075053EF60067D307EC0
:203FBA000080047D207E008D82C007C003C0021236DAD002D003D00780CA900529E0FEA3C6
:203FDA00E0FF90052DE0F519A3E0F51AC3E5199EE51A9F500F900529EEC39519F0EF951A9F
:203FFA00A3F08011900529E4F0A3F08008900529EAF0EBA3F0900536E0FEA3E0FF90052DD3
:20401A00E0F519A3E0F51AAA19AD1A151974FFB51902151AEA4D6045900527E0B40100E4CB
:20403A0033F0900527E070140EBE00010F8E828F83E0C4540FFD90050FF0800E8E828F83DD
:20405A00E0FD53050F90050FEDF090050FE0F582C007C006123715D006D00780AA90051F10
:20407A00E070030237E6900529E0FEA3E0FF8E038F051EBEFF011FEB4D70030237E67582B5
:20409A0020C007C0061236DAD006D00780E08C821236DA0237E6900510E0FEA3E08E82F5D0
:0240BA0083225F
:0B4576003C4E4F20464C4F41543E008D
:1840BC00AA82AB831240D46003A380F8C3E5829AF582E5839BF5832216
:20201100E58124FCC3C8C0E0C082E608467006E5824583601218E58296F58208E58396429D
:1B2031008208E5F0964582D082C8D0E0C8227581201240F0E582600302200ED2
:1C40D40020F71430F6148883A88220F507E6A88375830022E280F7E49322E022FB
:0440F00075820022B3
:00000001FF
